:100000000C9435010C9466010C9466010C94660105
:100010000C9466010C9466010C9466010C946601C4
:100020000C9466010C9466010C9466010C946601B4
:100030000C9466010C9466010C9466010C946601A4
:100040000C9466010C9466010C9466010C94660194
:100050000C9466010C9466010C9466010C94860461
:100060000C9466010C9450040C9426040C946601C4
:100070000C9466010C9466010C9466010C94660164
:100080000C9466010C9466010C9466010C94660154
:100090000C9466010C9466010C9466010C94660144
:1000A0000C9466010C9466010C9466010C94660134
:1000B0000C9466010C9466010C9466010C94660124
:1000C0000C9466010C9466010C9466010C94660114
:1000D0000C9466010C9466010C9466010C94660104
:1000E0000C9466010C940D030C94A7010C94E1028E
:1000F0000C940C030C94DA020C94FF020C947A0119
:100100000C94B6010C9403030C94EB020C94D202F1
:100110000C94CC020C9411030C94F9020C945D0223
:100120000C94CA010C94DE020C94D6020C941507B0
:100130000C9410020C94F1020C94E7020C94070347
:100140000C94F5020C94D801000021002400270033
:100150002A002D00300033000101000004010701D6
:100160000A0100002200250028002B002E0031008B
:10017000340002010000050108010B01000020000D
:100180002300260029002C002F003200000100006F
:10019000030106010901050505050705080808080A
:1001A000020202020A0A080804040404010101010F
:1001B000010101010303030303030303040707070A
:1001C0000C0C0C0C0C0C0C0C0202020206060606AF
:1001D000060606060B0B0B0B0B0B0B0B010210207C
:1001E000200808102040102040800201020108046D
:1001F0000201010204081020408080402010080401
:100200000201800402018040201008040201080459
:10021000020101020408102040800102040810209D
:10022000408000000A0B02090C0D0E0807030401B0
:1002300000000000000000000000000000000000BE
:10024000000000000000000000000000000012118B
:10025000100000000000000000000000000000008E
:100260000000000000000000150711241FBECFEFA2
:10027000D1E2DEBFCDBF00E00CBF25E0ACEEB4E0C4
:1002800001C01D92A939B207E1F714E0A0E0B2E085
:10029000ECEFF2E100E00BBF02C007900D92AC3E24
:1002A000B107D9F711E0C5E3D1E000E006C021971E
:1002B0000109802FFE010E945607C433D10780E058
:1002C0000807A9F70E94D0040C947C090C94000044
:1002D000FC01248135816217730720F480819181AC
:1002E000009729F41092F50485EF94E00895860FA5
:1002F000971F0895AF92BF92CF92DF92EF92FF9235
:100300000F931F93CF93DF936C017B018B01040F3D
:10031000151FEB015E01AE18BF08C017D10759F0D9
:100320006991D601ED91FC910190F081E02DC6011B
:100330001995892B79F7C501DF91CF911F910F9105
:10034000FF90EF90DF90CF90BF90AF900895FC01A9
:10035000538D448D252F30E0842F90E0821B930B2A
:10036000541710F0CF96089501970895FC01918DD0
:10037000828D981761F0A28DAE0FBF2FB11D5D96D3
:100380008C91928D9F5F9F73928F90E008958FEF75
:100390009FEF0895FC01918D828D981731F0828D29
:1003A000E80FF11D858D90E008958FEF9FEF089580
:1003B000FC01918D228D892F90E0805C9F4F821BE4
:1003C00091098F739927089588EF94E00E94D801CE
:1003D00021E0892B09F420E0822F0895FC01A48DEF
:1003E000A80FB92FB11DA35ABF4F2C91848D90E057
:1003F00001968F739927848FA689B7892C93A0893A
:10040000B1898C91837080648C93938D848D9813C3
:1004100006C00288F389E02D80818F7D8083089556
:10042000EF92FF920F931F93CF93DF93EC0181E044
:10043000888F9B8D8C8D98131AC0E889F9898081EB
:1004400085FF15C09FB7F894EE89FF896083E8891E
:10045000F98980818370806480839FBF81E090E010
:10046000DF91CF911F910F91FF90EF900895F62E9D
:100470000B8D10E00F5F1F4F0F731127E02E8C8D37
:100480008E110CC00FB607FCFACFE889F98980817C
:1004900085FFF5CFCE010E94EE01F1CFEB8DEC0F81
:1004A000FD2FF11DE35AFF4FF0829FB7F8940B8F99
:1004B000EA89FB8980818062CFCFCF93DF93EC0103
:1004C000888D8823B9F0AA89BB89E889F9898C913C
:1004D00085FD03C0808186FD0DC00FB607FCF7CFF8
:1004E0008C9185FFF2CF808185FFEDCFCE010E94F8
:1004F000EE01E9CFDF91CF91089580E090E0892B64
:1005000029F00E94E40181110E94000080E090E047
:10051000892B49F080E090E0892B29F00E940000AF
:1005200081110E94000080E090E0892B49F080E07A
:1005300090E0892B29F00E94000081110E940000A8
:1005400080E090E0892B49F080E090E0892B29F051
:100550000E94000081110C940000089581508231A6
:1005600008F05AC0E82FF0E08827E654FD4F8F4F7F
:100570000C945607DA02DE02CC02D202D6020C0339
:10058000E102E702EB02F102F502F902FF020303C6
:100590000C0307030D031103809180008F77809374
:1005A00080000895809180008F7DF9CF8091800038
:1005B000877FF5CF84B58F7784BD089584B58F7D0F
:1005C000FBCF8091B0008F778093B0000895809129
:1005D000B0008F7DF9CF809190008F77809390004D
:1005E0000895809190008F7DF9CF80919000877F52
:1005F000F5CF8091A0008F778093A000089580911F
:10060000A0008F7DF9CF8091A000877FF5CF8091EA
:1006100020018F77809320010895809120018F7DA4
:10062000F9CF80912001877FF5CF1F93CF93DF9380
:10063000282F30E0F901EE5DFD4F8491F901E4527D
:10064000FE4FD491F901EA56FE4FC491CC23A9F094
:10065000162F81110E94AE02EC2FF0E0EE0FFF1F6B
:10066000EE59FE4FA591B4918FB7F894EC9111110A
:1006700008C0D095DE23DC938FBFDF91CF911F910F
:100680000895DE2BF8CFCF93DF9390E0FC01E45286
:10069000FE4F24918A569E4FFC0184918823D1F00D
:1006A00090E0880F991FFC01E85BFE4FA591B49183
:1006B000FC01EE59FE4FC591D49161110EC09FB758
:1006C000F8948C91E22FE0958E238C932881E2237D
:1006D000E8839FBFDF91CF9108958FB7F894EC9195
:1006E000E22BEC938FBFF6CF3FB7F8948091F104E3
:1006F0009091F204A091F304B091F40426B5A89B64
:1007000005C02F3F19F00196A11DB11D3FBFBA2FA3
:10071000A92F982F8827BC01CD01620F711D811D63
:10072000911D42E0660F771F881F991F4A95D1F7E8
:100730000895FC0180819181009711F00C94FA07D3
:1007400008950F931F93CF93DF93EC0188819981D4
:10075000009759F02A813B812617370730F081E056
:10076000DF91CF911F910F9108958B016F5F7F4FA4
:100770000E948308009759F0998388831B830A831A
:100780002C813D81232B59F7FC011082E8CF80E0BA
:10079000E7CFEF92FF920F931F93CF93DF93FB016D
:1007A00001900020E9F73197E61BF70BE1F07B01A0
:1007B0008C01DC011496CD91DC91CE0FDF1FBE01C0
:1007C0000E94A103882381F0F80120813181848176
:1007D0009581B701820F931F0E947509D801159664
:1007E000DC93CE93149781E0DF91CF911F910F910D
:1007F000FF90EF900895EF92FF920F931F93CF9386
:10080000DF93EC017B018A01BA010E94A1032881D8
:100810003981811114C02115310519F0C9010E94D7
:10082000FA07198218821D821C821B821A82CE014D
:10083000DF91CF911F910F91FF90EF9008951D834D
:100840000C83B701C9010E947509F1CF1F920F9265
:100850000FB60F9211240BB60F922F933F934F9325
:100860005F936F937F938F939F93AF93BF93EF9318
:10087000FF9388EF94E00E94EE01FF91EF91BF910A
:10088000AF919F918F917F916F915F914F913F9128
:100890002F910F900BBE0F900FBE0F901F901895C9
:1008A0001F920F920FB60F9211240BB60F922F9337
:1008B0008F939F93EF93FF93E0910805F0910905C3
:1008C0008081E0910E05F0910F0582FD1DC09081A1
:1008D000809111058F5F8F7320911205821741F06F
:1008E000E0911105F0E0E850FB4F958F80931105E2
:1008F000FF91EF919F918F912F910F900BBE0F90D1
:100900000FBE0F901F9018958081F2CF1F920F920B
:100910000FB60F9211242F933F938F939F93AF9312
:10092000BF938091ED049091EE04A091EF04B091FB
:10093000F0043091EC0423E0230F2D3758F5019695
:10094000A11DB11D2093EC048093ED049093EE045F
:10095000A093EF04B093F0048091F1049091F2041D
:10096000A091F304B091F4040196A11DB11D8093F0
:10097000F1049093F204A093F304B093F404BF91B4
:10098000AF919F918F913F912F910F900FBE0F903C
:100990001F90189526E8230F0296A11DB11DD2CFF6
:1009A000CF93DF93CDB7DEB762970FB6F894DEBF73
:1009B0000FBECDBF789484B5826084BD84B581605C
:1009C00084BD85B5826085BD85B5816085BD80911A
:1009D0006E00816080936E00109281008091810092
:1009E000826080938100809181008160809381008A
:1009F000809180008160809380008091B10084604C
:100A00008093B1008091B00081608093B0008091AC
:100A10009100826080939100809191008160809329
:100A20009100809190008160809390008091A1005E
:100A300082608093A1008091A10081608093A100D9
:100A40008091A00081608093A0008091210182604C
:100A50008093210180912101816080932101809107
:100A6000200181608093200180917A0084608093CE
:100A70007A0080917A00826080937A0080917A0077
:100A8000816080937A0080917A00806880937A00F8
:100A90001092C100E0910805F091090582E0808381
:100AA000E0910405F09105051082E0910605F091B2
:100AB00007058FEC808310921005E0910C05F091F2
:100AC0000D0586E08083E0910A05F0910B05808199
:100AD00080618083E0910A05F0910B058081886038
:100AE0008083E0910A05F0910B0580818068808306
:100AF000E0910A05F0910B0580818F7D808360E095
:100B000087E30E94430308E112E06CE2C62E62E034
:100B1000D62EF801F0800E5F1F4F61E08F2D0E94EE
:100B2000430361E08F2D0E941503C016D10689F79B
:100B300058E5C52E52E0D52E0CE212E0F801F08007
:100B40000E5F1F4F61E08F2D0E94430360E08F2DE9
:100B50000E941503C016D10689F7E9E5F2E08491F9
:100B6000E3E1F2E00491EDECF1E01491F12CE12CE1
:100B7000112399F081110E94AE02E12FF0E0EE0FF7
:100B8000FF1FE458FE4FA591B491EC910E2391E024
:100B900080E009F490E0E92EF82E1E861D86188A62
:100BA0001F861A8A198A47E050E068E572E0CE0194
:100BB0000D960E94FB030D851E850115110571F030
:100BC000F80181918F01882349F0082E000C990BC0
:100BD0000E946409F80131978083F2CF1A8219824A
:100BE0001C821B821E821D826D857E8561157105AA
:100BF00031F049895A89CE0101960E94FB0318867B
:100C00001F821A8619861C861B8650E040E06AEE19
:100C100074E0CE0107960E94FB0306E110E060E657
:100C200072E0CE0107960E94C90301501109B9F77D
:100C300010E000E08D819E810817190708F061C05F
:100C4000B801CE0101960E946801FC0180816BE62B
:100C500072E0813409F442C0B801CE0101960E94CD
:100C60006801FC01808166EC72E08234B9F1B80160
:100C7000CE0101960E946801FC01808161E273E06F
:100C8000833461F1B801CE0101960E946801FC0134
:100C900080816CE773E0843409F1B801CE010196DC
:100CA0000E946801FC01808167ED73E08534B1F03A
:100CB000B801CE0101960E946801FC01808162E3C7
:100CC00074E0863459F0B801CE0101960E946801A3
:100CD000FC018081873431F46DE874E0CE01079621
:100CE0000E94C90360E672E0CE0107960E94C90324
:100CF00060E672E0CE0107960E94C9030F5F1F4FA6
:100D000099CFCE0101960E949903EA94EF2809F049
:100D100081C04B855C856F81788588EF94E00E9467
:100D20007A0142E050E068EE74E088EF94E00E94BF
:100D30007A0138E5E32E32E0F32E22E0E21AF108E0
:100D4000F701708061E0872D0E941503D12CC12C22
:100D50000091F6041091F7046B857C85C8010E9410
:100D60004207BC01CE0107960E946801FC01808108
:100D7000813391F5F601EE0FFF1FE85EFD4F6080B5
:100D800060E0862D0E9415030E9474034B015C01F4
:100D900022E0222E312C412C512C0E947403681920
:100DA00079098A099B09683E734081059105A8F37A
:100DB000F8EE8F0EF3E09F1EA11CB11C2A9423288D
:100DC0002428252829F0212C312C21012394E5CF3A
:100DD00061E0862D0E941503C80101969093F704E7
:100DE0008093F604FFEFCF1ADF0A2AE0C216D1047F
:100DF00009F0AECF60E0872D0E9415038CE2E81663
:100E000082E0F80609F099CF015D11091093F7040B
:100E10000093F604CE0107960E949903CE010D9629
:100E20000E9499030E947D0298CEE8EFF4E01382BD
:100E3000128288EE93E0A0E0B0E084839583A683DD
:100E4000B7838AE092E09183808385EC90E0958778
:100E5000848784EC90E09787868780EC90E0918B84
:100E6000808B81EC90E0938B828B82EC90E0958B71
:100E7000848B86EC90E0978B868B118E128E138E6E
:100E8000148E0895AA1BBB1B51E107C0AA1FBB1FEC
:100E9000A617B70710F0A61BB70B881F991F5A9506
:100EA000A9F780959095BC01CD010895EE0FFF1F25
:100EB000881F8BBF0790F691E02D19940F931F9315
:100EC000CF93DF938230910510F482E090E0E091BF
:100ED0009705F091980530E020E0B0E0A0E0309771
:100EE00099F42115310509F44AC0281B390B243027
:100EF0003105D8F58A819B816115710589F1FB0166
:100F000093838283FE0111C040815181028113814C
:100F100048175907E0F04817590799F4109761F0FE
:100F200012960C93129713961C933296CF01DF9171
:100F3000CF911F910F9108950093970510939805F5
:100F4000F4CF2115310551F04217530738F0A901AC
:100F5000DB019A01BD01DF01F801C1CFEF01F9CF3B
:100F60009093980580939705CDCFFE01E20FF31F74
:100F7000819391932250310939832883D7CF2091CF
:100F8000950530919605232B41F420910202309172
:100F9000030230939605209395052091000230912D
:100FA00001022115310541F42DB73EB740910402ED
:100FB00050910502241B350BE0919505F0919605A3
:100FC000E217F307A0F42E1B3F0B2817390778F020
:100FD000AC014E5F5F4F2417350748F04E0F5F1F7F
:100FE0005093960540939505819391939FCFF0E0A0
:100FF000E0E09CCFCF93DF930097E9F0FC013297BC
:1010000013821282A0919705B0919805ED0130E00E
:1010100020E01097A1F420813181820F931F20914D
:101020009505309196052817390709F061C0F093AE
:101030009605E0939505DF91CF910895EA01CE17CB
:10104000DF07E8F54A815B819E0141155105B1F743
:10105000E901FB83EA8349915991C40FD51FEC172D
:10106000FD0761F4808191810296840F951FE9014B
:1010700099838883828193819B838A83F0E0E0E077
:1010800012968D919C9113970097B9F52D913C91F3
:101090001197CD010296820F931F209195053091F3
:1010A00096052817390739F6309751F510929805AB
:1010B00010929705B0939605A0939505BCCFD38366
:1010C000C28340815181840F951FC817D90761F4ED
:1010D0004E5F5F4F88819981480F591F518340832C
:1010E0008A819B81938382832115310509F0B0CFDA
:1010F000F0939805E09397059ECFFD01DC01C0CFEA
:1011000013821282D7CF4F925F926F927F928F920B
:101110009F92AF92BF92CF92DF92EF92FF920F9386
:101120001F93CF93DF938C01009799F4CB01DF914C
:10113000CF911F910F91FF90EF90DF90CF90BF90D4
:10114000AF909F908F907F906F905F904F900C9496
:101150005E07FC01E60FF71F9C0122503109E217E0
:10116000F30708F4AEC0D901CD91DC911197C617F1
:10117000D70720F1C530D10578F0CE010497861746
:10118000970750F0C61BD70B2297C193D1936D934D
:101190007C93CF010E94FA07C801DF91CF911F9184
:1011A0000F91FF90EF90DF90CF90BF90AF909F9006
:1011B0008F907F906F905F904F9008955B01AC1A75
:1011C000BD0A4C018C0E9D1EA0919705B09198050B
:1011D000512C412CF12CE12C109731F58091950583
:1011E000909196058815990509F05CC0461657063A
:1011F00008F058C08091000290910102009741F4DC
:101200008DB79EB74091040250910502841B950B47
:10121000E817F90708F055C0F0939605E093950597
:10122000F90171836083B8CF8D919C9111971296CB
:101230006C90129713967C901397A815B90559F5E1
:101240006C0142E0C40ED11CCA14DB0420F1AC01D5
:101250004A195B09DA011296159780F0628273824F
:1012600051834083D9016D937C93E114F10471F0B3
:10127000D7011396FC93EE9312978ECF22968C0F84
:101280009D1FF90191838083F301EFCFF0939805BF
:10129000E093970581CF4816590608F42C017D018B
:1012A000D3019ACFCB010E945E077C01009749F0E1
:1012B000AE01B8010E946C09C8010E94FA078701BB
:1012C0006BCF10E000E068CF9111089581568A51EC
:1012D00008F4805285580895FB01DC0102C001909A
:1012E0000D9241505040D8F70895FB01DC01019068
:0C12F0000D920020E1F70895F894FFCF64
:1012FC000000990580000000000010027A01A7018F
:10130C005D02D801B601CA011600170018001900B9
:10131C001A001B001C001D001E001F0020002100D5
:10132C002200230024002500260027002800290085
:10133C002A002B002C002D002E002F003000310035
:10134C003200330034003500616263646566670007
:10135C0030303030303030303030003030313131AE
:10136C003131313131303031313131313131313163
:10137C00313030303131303030313130303031315A
:10138C00303030313130303031313030303131304B
:10139C00303031313030303131303030313130303B
:1013AC003030303131313131313131303031313126
:1013BC003131313131003131313131313131313142
:1013CC003131313131313131313131313030313004
:1013DC0030303131313130303130303031313131F8
:1013EC0030303130303031313131303031303030EB
:1013FC0031313131303031303030313130303131D8
:10140C0030313131303030303131303131313030C8
:10141C0000303031313131313130303031313131E6
:10142C0031313131303131303030303030313131A7
:10143C00313030303030303131313130303030309B
:10144C003031313131303030303030313131313088
:10145C00303030303031313031313030303031317A
:10146C003030313130303030313130003131313198
:10147C003131313131313131313131313131313150
:10148C00313130303030303031313131303030304A
:10149C003030313131313030303030303131313138
:1014AC00303030303030313131313030303030302C
:1014BC003131303031313131313130303030313116
:1014CC003131313130300031313131313131313133
:1014DC0031313131313131313131313131303031F2
:1014EC0030303031313131303031303030313131E8
:1014FC0031303031303030313131313030313030D9
:10150C0030313131313030313030303131313130C6
:10151C0030313030303131313130303030303031B9
:10152C0031003131313131313131313131313131D0
:10153C003131313131313131303031313030303095
:10154C003131303031313030303031313030313187
:10155C003030303031313030313130303030313179
:10156C003030313130303030313130303131303069
:10157C00303031313030303030303030003030318C
:10158C003131313131303030313131313131313142
:10159C003031313030303030303131313130303039
:1015AC003030303131313130303030303031313128
:1015BC003130303030303031313131303031303019
:1015CC003031313131303031303030313130313007
:0C15DC0030303131313130000D0A000098
:00000001FF
