:020000040000FA
:100000000C945A010C948B010C948B010C948B0171
:100010000C948B010C948B010C948B010C948B0130
:100020000C948B010C948B010C948B010C948B0120
:100030000C948B010C948B010C948B010C948B0110
:100040000C948B010C948B010C948B010C948B0100
:100050000C948B010C948B010C948B010C94630514
:100060000C948B010C942D050C9403050C948B01BE
:100070000C948B010C948B010C948B010C948B01D0
:100080000C948B010C948B010C948B010C948B01C0
:100090000C948B010C948B010C948B010C948B01B0
:1000A0000C948B010C948B010C948B010C948B01A0
:1000B0000C948B010C948B010C948B010C948B0190
:1000C0000C948B010C948B010C948B010C948B0180
:1000D0000C948B010C948B010C948B010C948B0170
:1000E0000C948B010C94530B0C943E020C9444031F
:1000F0000C94C3020C946D030C94500B0C94DC0113
:100100000C943C030C9438030C9457030C94320B5E
:100110000C945B030C942F0B0C9465030C94470B0D
:100120000C9469030C9472030C94290B0C944D03EA
:100130000C9430020C9451030C94AD050C94730391
:100140000C9440030C943E0B0C944D0B0C94560BEA
:100150000C94440B0C943B0B0C94380B0C94320312
:100160000C945F030C94CD010C94110C0C9476024A
:100170000C94410B0C94A0010C945C0B0C944A0B56
:100180000C94590B0C9477030C9447030C94350B87
:1001900000002100240027002A002D003000330039
:1001A00001010000040107010A01000022002500EE
:1001B00028002B002E003100340002010000050150
:1001C00008010B01000020002300260029002C005C
:1001D0002F0032000001000003010601090105059E
:1001E0000505070508080808020202020A0A0808AD
:1001F00004040404010101010101010103030303DB
:1002000003030303040707070C0C0C0C0C0C0C0C69
:100210000202020206060606060606060B0B0B0B7A
:100220000B0B0B0B0102102020080810204010209F
:1002300040800201020108040201010204081020AA
:1002400040808040201008040201800402018040A8
:100250002010080402010804020101020408102011
:100260004080010204081020408000000A0B0209AF
:100270000C0D0E0807030401000000000000000040
:10028000000000000000000000000000000000006E
:10029000000000000000121110000000000000002B
:1002A000000000000000000000000000000000004E
:1002B000AD05110C11241FBECFEFD1E2DEBFCDBFC3
:1002C00000E00CBF27E0ACE7B6E001C01D92AF3202
:1002D000B207E1F716E0A0E0B2E0E2ECFCE100E0FA
:1002E0000BBF02C007900D92AC37B107D9F711E0F0
:1002F000C9E5D1E000E006C021970109802FFE0189
:100300000E94290CC835D10780E00807A9F70E9490
:10031000DD050C944F0E0C940000FC012481358106
:100320006217730720F480819181009729F410925D
:10033000810681E896E00895860F971F0895089535
:10034000AF92BF92CF92DF92EF92FF920F931F93E3
:10035000CF93DF936C017B018B01040F151FEB0121
:100360005E01AE18BF08C017D10759F06991D601D8
:10037000ED91FC910190F081E02DC6011995892B3A
:1003800079F7C501DF91CF911F910F91FF90EF9009
:10039000DF90CF90BF90AF900895FC01538D448DB6
:1003A000252F30E0842F90E0821B930B541710F020
:1003B000CF96089501970895FC01918D828D98172D
:1003C00061F0A28DAE0FBF2FB11D5D968C91928D05
:1003D0009F5F9F73928F90E008958FEF9FEF089536
:1003E0002FB7F8948091840690918506A091860697
:1003F000B09187062FBF8093900690939106A093AB
:100400009206B093930688E896E00E94DC0197FF7D
:1004100026C02FB7F8948091840690918506A0910C
:100420008606B09187062FBF4091900650919106A5
:100430006091920670919306841B950BA60BB70BE7
:1004400040918C0650918D0660918E0670918F06BA
:1004500084179507A607B707B0F28FEF9FEF0895AF
:10046000FC01918D828D981731F0828DE80FF11D7E
:10047000858D90E008958FEF9FEF0895FC01918D99
:10048000228D892F90E0805C9F4F821B91098F7392
:100490009927089588E896E00E943E0221E0892B82
:1004A00009F420E0822F0895FC01A48DA80FB92F34
:1004B000B11DA35ABF4F2C91848D90E001968F738C
:1004C0009927848FA689B7892C93A089B1898C91AB
:1004D000837080648C93938D848D981306C00288FA
:1004E000F389E02D80818F7D80830895EF92FF92C4
:1004F0000F931F93CF93DF93EC0181E0888F9B8D47
:100500008C8D98131AC0E889F989808185FF15C000
:100510009FB7F894EE89FF896083E889F989808123
:100520008370806480839FBF81E090E0DF91CF91F2
:100530001F910F91FF90EF900895F62E0B8D10E014
:100540000F5F1F4F0F731127E02E8C8D8E110CC083
:100550000FB607FCFACFE889F989808185FFF5CFCE
:10056000CE010E945402F1CFEB8DEC0FFD2FF11D57
:10057000E35AFF4FF0829FB7F8940B8FEA89FB890B
:1005800080818062CFCFCF93DF93EC01888D882369
:10059000B9F0AA89BB89E889F9898C9185FD03C0E6
:1005A000808186FD0DC00FB607FCF7CF8C9185FFCB
:1005B000F2CF808185FFEDCFCE010E945402E9CFBA
:1005C000DF91CF91089580E090E0892B29F00E947F
:1005D0004A0281110E94000080E090E0892B49F0DE
:1005E00080E090E0892B29F00E94000081110E9498
:1005F000000080E090E0892B49F080E090E0892BBA
:1006000029F00E94000081110E94000080E090E02B
:10061000892B49F080E090E0892B29F00E940000AE
:1006200081110C94000008958150823108F05AC065
:10063000E82FF0E08827E05EFC4F8F4F0C94290CE8
:1006400040034403320338033C03720347034D0362
:10065000510357035B035F036503690372036D0373
:1006600073037703809180008F77809380000895D3
:10067000809180008F7DF9CF80918000877FF5CFBA
:1006800084B58F7784BD089584B58F7DFBCF80912D
:10069000B0008F778093B00008958091B0008F7D77
:1006A000F9CF809190008F7780939000089580918A
:1006B00090008F7DF9CF80919000877FF5CF80915A
:1006C000A0008F778093A00008958091A0008F7D77
:1006D000F9CF8091A000877FF5CF809120018F779F
:1006E000809320010895809120018F7DF9CF809122
:1006F0002001877FF5CF1F93CF93DF93282F30E022
:10070000F901E659FD4F8491F901EC5DFD4FD4915B
:10071000F901E252FE4FC491CC23A9F0162F8111AA
:100720000E941403EC2FF0E0EE0FFF1FE655FE4F82
:10073000A591B4918FB7F894EC91111108C0D095A0
:10074000DE23DC938FBFDF91CF911F910895DE2BC5
:10075000F8CFCF93DF9390E0FC01EC5DFD4F249147
:1007600082529E4FFC0184918823D1F090E0880F43
:10077000991FFC01E057FE4FA591B491FC01E6558D
:10078000FE4FC591D49161110EC09FB7F8948C9122
:10079000E22FE0958E238C932881E223E8839FBF8C
:1007A000DF91CF9108958FB7F894EC91E22BEC9301
:1007B0008FBFF6CF3FB7F89480917D0690917E066B
:1007C000A0917F06B091800626B5A89B05C02F3F5B
:1007D00019F00196A11DB11D3FBFBA2FA92F982F67
:1007E0008827BC01CD01620F711D811D911D42E062
:1007F000660F771F881F991F4A95D1F70895FC014E
:1008000080819181009711F00C94CD0C08950F9385
:100810001F93CF93DF938C01EB01FC0180819181C9
:100820000097E1F06881798161157105A9F0428135
:1008300053812C813D814217530770F00E94480E6E
:100840008C819D81F801958384831D821C82DF91B8
:10085000CF911F910F9108950E94CD0C88819981AD
:10086000F801918380838A819B81938382838C8129
:100870009D8195838483198218821B821A82E5CF19
:100880000F931F93CF93DF93EC0188819981009799
:1008900059F02A813B812617370730F081E0DF913C
:1008A000CF911F910F9108958B016F5F7F4F0E9431
:1008B000560D009759F0998388831B830A832C81F6
:1008C0003D81232B59F7FC011082E8CF80E0E7CF70
:1008D000EF92FF920F931F93CF93DF93FB01019051
:1008E0000020E9F73197E61BF70BE1F07B018C0163
:1008F000DC011496CD91DC91CE0FDF1FBE010E946A
:100900004004882381F0F801208131818481958120
:10091000B701820F931F0E94480ED8011596DC93F1
:10092000CE93149781E0DF91CF911F910F91FF90AB
:10093000EF900895EF92FF920F931F93CF93DF9361
:100940001F921F92CDB7DEB78C0169831A82FC011A
:10095000E480F580FFEFEF1AFF0AB7010E94400420
:10096000882381F0F8012081318184819581BE0145
:100970006F5F7F4F820F931F0E94480EF801F58230
:10098000E48281E00F900F90DF91CF911F910F9142
:10099000FF90EF900895EF92FF920F931F93CF93E4
:1009A000DF93EC017B018A01BA010E944004288197
:1009B0003981811114C02115310519F0C9010E9436
:1009C000CD0C198218821D821C821B821A82CE01D4
:1009D000DF91CF911F910F91FF90EF9008951D83AC
:1009E0000C83B701C9010E94480EF1CFFC011182AE
:1009F0001082138212821582148250E040E061E579
:100A000075E00C94CB041F920F920FB60F92112435
:100A10000BB60F922F933F934F935F936F937F93F8
:100A20008F939F93AF93BF93EF93FF9388E896E0E4
:100A30000E945402FF91EF91BF91AF919F918F91CE
:100A40007F916F915F914F913F912F910F900BBECE
:100A50000F900FBE0F901F9018951F920F920FB618
:100A60000F9211240BB60F922F938F939F93EF93B6
:100A7000FF93E0919806F09199068081E0919E069F
:100A8000F0919F0682FD1DC090818091A1068F5F2D
:100A90008F732091A206821741F0E091A106F0E049
:100AA000E857F94F958F8093A106FF91EF919F91A1
:100AB0008F912F910F900BBE0F900FBE0F901F9034
:100AC00018958081F2CF1F920F920FB60F921124CA
:100AD0002F933F938F939F93AF93BF9380918406FF
:100AE00090918506A0918606B091870630917C068C
:100AF00023E0230F2D3758F50196A11DB11D20933A
:100B00007C068093840690938506A0938606B09316
:100B1000870680917D0690917E06A0917F06B09118
:100B200080060196A11DB11D80937D0690937E06DF
:100B3000A0937F06B0938006BF91AF919F918F9154
:100B40003F912F910F900FBE0F901F90189526E8A0
:100B5000230F0296A11DB11DD2CFE8E8F6E0138263
:100B6000128288EE93E0A0E0B0E084839583A683B0
:100B7000B7838AE492E09183808385EC90E0958747
:100B8000848784EC90E09787868780EC90E0918B57
:100B9000808B81EC90E0938B828B82EC90E0958B44
:100BA000848B86EC90E0978B868B118E128E138E41
:100BB000148E85E297E00C94F604CF93DF93CDB7C3
:100BC000DEB768970FB6F894DEBF0FBECDBF78943E
:100BD00084B5826084BD84B5816084BD85B5826042
:100BE00085BD85B5816085BD80916E0081608093F3
:100BF0006E0010928100809181008260809381005C
:100C0000809181008160809381008091800081606B
:100C1000809380008091B10084608093B1008091C6
:100C2000B00081608093B0008091910082608093D9
:100C3000910080919100816080939100809190005B
:100C40008160809390008091A10082608093A100D8
:100C50008091A10081608093A1008091A0008160BB
:100C60008093A00080912101826080932101809176
:100C70002101816080932101809120018160809316
:100C8000200180917A00846080937A0080917A00BC
:100C9000826080937A0080917A00816080937A00EC
:100CA00080917A00806880937A001092C100E09170
:100CB0009806F091990682E08083E0919406F09185
:100CC00095061082E0919606F09197068FEC80834E
:100CD0001092A006E0919C06F0919D0686E080832C
:100CE000E0919A06F0919B06808180618083E0917B
:100CF0009A06F0919B06808188608083E0919A0635
:100D0000F0919B06808180688083E0919A06F09143
:100D10009B0680818F7D808360E08DE00E94A90327
:100D200006E012E0FAE1CF2EF2E0DF2ED801FC90CF
:100D30000E5F1F4F61E08F2D0E94A90361E08F2D90
:100D40000E947B03C016D10689F7E6E4CE2EE2E0CE
:100D5000DE2E0AE112E0F801F0800E5F1F4F61E025
:100D60008F2D0E94A90360E08F2D0E947B03C01687
:100D7000D10689F757E7452E52E0552E61E3662EDE
:100D800062E0762E7BEE872E71E0972E88E896E063
:100D90000E943E02892BD1F3CE0101960E94F604F7
:100DA0000E94F00197FD06C0682FCE0101960E94B7
:100DB0009A04F6CFBE016F5F7F4F85E297E00E94F5
:100DC0000704CE0101960E94FF03009125071091B0
:100DD00026070115110571F0D8018D918D01882329
:100DE00049F0082E000C990B0E94370EF80131973C
:100DF0008083F2CF1A8219821C821B821E821D827E
:100E000060912507709126076115710541F04091A9
:100E1000290750912A07CE0101960E94CB04CE01EA
:100E200043960E94F60406E110E06EE475E0CE0100
:100E300043960E94680401501109B9F710E000E0E0
:100E40008D819E810817190708F035C3B801CE01BE
:100E500001960E948D01FC01808168E572E0813479
:100E600009F41CC3B801CE0101960E948D01DC017A
:100E70008C9168E672E0823409F410C3B801CE01A7
:100E800001960E948D01FC01808168E772E0833445
:100E900009F404C3B801CE0101960E948D01DC0162
:100EA0008C9168E872E0843409F4F8C2B801CE018C
:100EB00001960E948D01FC01808168E972E0853411
:100EC00009F4ECC2B801CE0101960E948D01DC014B
:100ED0008C9168EA72E0863409F4E0C2B801CE0170
:100EE00001960E948D01FC01808168EB72E08734DD
:100EF00009F4D4C2B801CE0101960E948D01DC0133
:100F00008C9168EC72E0883409F4C8C2B801CE0153
:100F100001960E948D01FC01808168ED72E08934A8
:100F200009F4BCC2B801CE0101960E948D01DC011A
:100F30008C9168EE72E08A3409F4B0C2B801CE0137
:100F400001960E948D01FC01808168EF72E08B3474
:100F500009F4A4C2B801CE0101960E948D01DC0102
:100F60008C9168E073E08C3409F498C2B801CE012A
:100F700001960E948D01FC01808168E173E08D344F
:100F800009F48CC2B801CE0101960E948D01DC01EA
:100F90008C9168E273E08E3409F480C2B801CE010E
:100FA00001960E948D01B801CE0101960E948D012B
:100FB000FC01808168E373E08F3409F46FC2B801EB
:100FC000CE0101960E948D01DC018C9168E473E0F2
:100FD000803509F463C2B801CE0101960E948D01EB
:100FE000FC01808168E573E0813509F457C2B801DE
:100FF000CE0101960E948D01DC018C9168E673E0C0
:10100000823509F44BC2B801CE0101960E948D01D0
:10101000FC01808168E773E0833509F43FC2B801C1
:10102000CE0101960E948D01DC018C9168E873E08D
:10103000843509F433C2B801CE0101960E948D01B6
:10104000FC01808168E973E0853509F427C2B801A5
:10105000CE0101960E948D01DC018C9168EA73E05B
:10106000863509F41BC2B801CE0101960E948D019C
:10107000FC01808168EB73E0873509F40FC2B80189
:10108000CE0101960E948D01DC018C9168EC73E029
:10109000883509F403C2B801CE0101960E948D0182
:1010A000FC01808168ED73E0893509F4F7C1B8016E
:1010B000CE0101960E948D01DC018C9168EE73E0F7
:1010C0008A3509F4EBC1B801CE0101960E948D0169
:1010D000FC01808168EF73E0803309F4DFC1B8015F
:1010E000CE0101960E948D01DC018C9168E074E0D4
:1010F000813309F4D3C1B801CE0101960E948D015C
:10110000FC01808168E174E0823309F4C7C1B80151
:10111000CE0101960E948D01DC018C9168E274E0A1
:10112000833309F4BBC1B801CE0101960E948D0141
:10113000FC01808168E374E0843309F4AFC1B80135
:10114000CE0101960E948D01DC018C9168E474E06F
:10115000853309F4A3C1B801CE0101960E948D0127
:10116000FC01808168E574E0863309F497C1B80119
:10117000CE0101960E948D01DC018C9168E674E03D
:10118000873309F48BC1B801CE0101960E948D010D
:10119000FC01808168E774E0883309F47FC1B801FD
:1011A000CE0101960E948D01DC018C9168E874E00B
:1011B000893309F473C1B801CE0101960E948D01F3
:1011C000FC01808168E974E08D3309F467C1B801DE
:1011D000CE0101960E948D01DC018C9168EA74E0D9
:1011E000853209F45BC1B801CE0101960E948D01E0
:1011F000FC01808168EB74E0863209F44FC1B801CC
:10120000CE0101960E948D01DC018C9168EC74E0A6
:10121000833209F443C1B801CE0101960E948D01C9
:10122000FC01808168ED74E0813209F437C1B801B6
:10123000CE0101960E948D01DC018C9168EE74E074
:101240008F3309F42BC1B801CE0101960E948D01A4
:10125000FC01808168EF74E08B3209F41FC1B80192
:10126000CE0101960E948D01DC018C9168E075E051
:101270008D3209F413C1B801CE0101960E948D018F
:10128000FC01808168E175E08A3209F407C1B80188
:10129000CE0101960E948D01DC018C9168E275E01F
:1012A0008F3209F4FBC0B801CE0101960E948D0176
:1012B000FC01808168E375E08E3509F4EFC0B80168
:1012C000CE0101960E948D01DC018C9168E475E0ED
:1012D000803209F4E3C0B801CE0101960E948D016D
:1012E000FC01808162E575E08C3309F4D7C0B80158
:1012F000CE0101960E948D01DC018C9162E675E0C1
:101300008E3309F4CBC0B801CE0101960E948D0145
:10131000FC01808162E775E08F3509F4BFC0B80138
:10132000CE0101960E948D01DC018C9162E875E08E
:10133000843209F4B3C0B801CE0101960E948D0138
:10134000B801CE0101960E948D01B801CE0101962F
:101350000E948D01FC01808162E975E08E3209F402
:101360009DC0B801CE0101960E948D01DC018C91D7
:1013700066E975E08B3509F491C0B801CE0101969C
:101380000E948D01FC01808166EA75E08D3509F4CB
:1013900085C0B801CE0101960E948D01DC018C91BF
:1013A00066EB75E08C3709F479C0B801CE0101967F
:1013B0000E948D01FC0180816DEB75E08A3309F498
:1013C0006DC0B801CE0101960E948D01DC018C91A7
:1013D0006AEB75E08B3309F461C0B801CE01019668
:1013E0000E948D01FC01808161EC75E08C3209F472
:1013F00055C0B801CE0101960E948D01DC018C918F
:101400006BEC75E08E3709F449C0B801CE01019646
:101410000E948D01FC0180816BED75E08C35F1F14E
:10142000B801CE0101960E948D01DC018C9164E52A
:1014300073E0873299F1B801CE0101960E948D01C7
:10144000FC0180816BEE75E0823241F1B801CE0182
:1014500001960E948D01DC018C916BEF75E0803468
:10146000E9F0B801CE0101960E948D01B801CE01CC
:1014700001960E948D01FC0180816BE076E08D3742
:1014800069F0B801CE0101960E948D01DC018C91BA
:101490006BE176E08B3711F06BE276E0CE0143969C
:1014A0000E9468046BE475E0CE0143960E946804D4
:1014B0000F5F1F4FC5CCCE0101960E94FF03F201C2
:1014C0008491F3010491F4011491112309F49EC154
:1014D00081110E941403E12FF0E0EE0FFF1FEC5387
:1014E000FE4FA591B4918C91082309F48FC136E485
:1014F000E32E32E0F32EF2E0EF1AF10861E0D701BB
:101500008C910E947B03CE010D960E94F6040091FF
:101510008206109183066F89788DC8010E94150C90
:10152000BC01CE0143960E948D01FC016081CE0179
:101530000D960E949A04C80101966F89788D0E94C9
:10154000150CBC01CE0143960E948D01DC016C910B
:10155000CE010D960E949A04C80102966F89788D7B
:101560000E94150CBC01CE0143960E948D01FC0126
:101570006081CE010D960E949A041A8219821C8203
:101580001B821E821D826D857E856115710531F07D
:1015900049895A89CE0101960E94CB04CE01079653
:1015A0000E94F60410E000E0B801CE0101960E940E
:1015B0008D01DC018C91882309F481C0B801CE0132
:1015C00001960E948D01DC01EC91E053E73308F0B5
:1015D00046C00E2E000CFF0B8827EE50F54F8F4FA4
:1015E0000C94290C290B320B350B380B3B0B3E0BA3
:1015F000410B440B470B4A0B2F0B2F0B2F0B2F0BC1
:101600002F0B2F0B2F0B4D0B500B530B560B590B56
:101610005C0B2F0B2F0B2F0B2F0B2F0B2F0B2F0BCD
:101620002F0B2F0B2F0B2F0B2F0B2F0B2F0B2F0BEA
:101630002F0B2F0B2F0B2F0B2F0B2F0B2F0B2F0BDA
:101640002F0B2F0B2F0B4D0B500B530B560B590B16
:101650005C0B6DE475E0CE0107960E9468040F5F95
:101660001F4FA2CF6BE376E0F6CF63E075E0F3CFD8
:1016700060E476E0F0CF65E476E0EDCF6AE476E012
:10168000EACF6FE476E0E7CF64E576E0E4CF69E5A2
:1016900076E0E1CF6DE775E0DECF6EE576E0DBCF9B
:1016A00063E676E0D8CF68E676E0D5CF6DE676E003
:1016B000D2CF62E776E0CFCF67E776E0CCCFCE013E
:1016C00001960E94FF03CB84DC8492E0A92EB12C0A
:1016D000B2E0CB16D10420F4560122E0C22ED12C68
:1016E000CE0101960E94F6040B851C85A016B1065A
:1016F00020F5C016D10608F48601EF81F885E00FC9
:10170000F11FD08010826F8178856A0D7B1D611575
:10171000710509F46EC0FB0101900020E9F73197D3
:10172000AF01461B570BCE0101960E94CB048F815F
:101730009885080F191FF801D082BE016F5F7F4F97
:10174000CE0107960E940704CE0101960E94FF0376
:1017500010E000E0B801CE0107960E948D01DC0187
:101760008C918133E9F4F801EE0FFF1FEA5FFD4F22
:10177000308060E0832D0E947B030E94DA035B01CE
:101780006C010E94DA036A197B098C099D09683E85
:10179000734081059105A8F361E0832D0E947B03CE
:1017A0000F5F1F4F0A301105A9F6009182061091B4
:1017B0008306C8010396909383068093820660E0B7
:1017C000F70180810E947B03CE0107960E94FF03F0
:1017D000CE010D960E94FF03FAE1EF16F2E0FF063C
:1017E00009F089CE0C5311091093830600938206E9
:1017F00066CE89819A81009711F00E94CD0C1A82E1
:1018000019821E821D821C821B8291CF1092830638
:1018100010928206CE0143960E94FF030E94E302CB
:10182000B5CA85E297E00C94FF03AA1BBB1B51E1EC
:1018300007C0AA1FBB1FA617B70710F0A61BB70B40
:10184000881F991F5A95A9F780959095BC01CD01E5
:101850000895EE0FFF1F881F8BBF0790F691E02DB4
:1018600019940F931F93CF93DF938230910510F457
:1018700082E090E0E0912D07F0912E0730E020E02B
:10188000B0E0A0E0309799F42115310509F44AC081
:10189000281B390B24303105D8F58A819B816115CD
:1018A000710589F1FB0193838283FE0111C04081A0
:1018B00051810281138148175907E0F048175907F1
:1018C00099F4109761F012960C93129713961C934B
:1018D0003296CF01DF91CF911F910F910895009320
:1018E0002D0710932E07F4CF2115310551F0421723
:1018F000530738F0A901DB019A01BD01DF01F801AE
:10190000C1CFEF01F9CF90932E0780932D07CDCF54
:10191000FE01E20FF31F8193919322503109398325
:101920002883D7CF20912B0730912C07232B41F40C
:10193000209102023091030230932C0720932B0751
:1019400020910002309101022115310541F42DB79B
:101950003EB74091040250910502241B350BE091E3
:101960002B07F0912C07E217F307A0F42E1B3F0B77
:101970002817390778F0AC014E5F5F4F2417350701
:1019800048F04E0F5F1F50932C0740932B07819315
:1019900091939FCFF0E0E0E09CCFCF93DF9300974F
:1019A000E9F0FC01329713821282A0912D07B091C9
:1019B0002E07ED0130E020E01097A1F42081318165
:1019C000820F931F20912B0730912C07281739077E
:1019D00009F061C0F0932C07E0932B07DF91CF91C2
:1019E0000895EA01CE17DF07E8F54A815B819E0181
:1019F00041155105B1F7E901FB83EA8349915991FA
:101A0000C40FD51FEC17FD0761F480819181029608
:101A1000840F951FE90199838883828193819B8339
:101A20008A83F0E0E0E012968D919C9113970097E5
:101A3000B9F52D913C911197CD010296820F931F1C
:101A400020912B0730912C072817390739F630974A
:101A500051F510922E0710922D07B0932C07A093EA
:101A60002B07BCCFD383C28340815181840F951F44
:101A7000C817D90761F44E5F5F4F88819981480F7D
:101A8000591F518340838A819B81938382832115CF
:101A9000310509F0B0CFF0932E07E0932D079ECFCC
:101AA000FD01DC01C0CF13821282D7CF4F925F922B
:101AB0006F927F928F929F92AF92BF92CF92DF925E
:101AC000EF92FF920F931F93CF93DF938C010097B8
:101AD00099F4CB01DF91CF911F910F91FF90EF907F
:101AE000DF90CF90BF90AF909F908F907F906F903E
:101AF0005F904F900C94310CFC01E60FF71F9C0196
:101B000022503109E217F30708F4AEC0D901CD9194
:101B1000DC911197C617D70720F1C530D10578F0B1
:101B2000CE0104978617970750F0C61BD70B229754
:101B3000C193D1936D937C93CF010E94CD0CC801CA
:101B4000DF91CF911F910F91FF90EF90DF90CF9099
:101B5000BF90AF909F908F907F906F905F904F90CD
:101B600008955B01AC1ABD0A4C018C0E9D1EA0911C
:101B70002D07B0912E07512C412CF12CE12C109700
:101B800031F580912B0790912C078815990509F064
:101B90005CC04616570608F058C08091000290912C
:101BA0000102009741F48DB79EB740910402509115
:101BB0000502841B950BE817F90708F055C0F09350
:101BC0002C07E0932B07F90171836083B8CF8D91C7
:101BD0009C91119712966C90129713967C90139784
:101BE000A815B90559F56C0142E0C40ED11CCA1400
:101BF000DB0420F1AC014A195B09DA011296159752
:101C000080F06282738251834083D9016D937C930B
:101C1000E114F10471F0D7011396FC93EE9312973F
:101C20008ECF22968C0F9D1FF90191838083F30143
:101C3000EFCFF0932E07E0932D0781CF481659067A
:101C400008F42C017D01D3019ACFCB010E94310C05
:101C50007C01009749F0AE01B8010E943F0EC80117
:101C60000E94CD0C87016BCF10E000E068CF91118E
:101C7000089581568A5108F4805285580895FB01D1
:101C8000DC0102C001900D9241505040D8F70895F8
:101C9000FB01DC0101900D920020E1F7089511E0B5
:101CA000C9E5D1E000E006C0802FFE010E94290CAA
:101CB0002196011DCA35D10780E00807A9F7F894DD
:101CC000FFCF00002F078000160017001800190032
:101CD0001A001B001C001D001E001F002000210018
:101CE00022002300240025002600270028002900C8
:101CF0002A002B002C002D002E002F003000310078
:101D00003200330034003500000000007602A001EC
:101D1000CD01C3023E02DC01300231464632313091
:101D2000323130323130314646003346463232317C
:101D30003232313232313144450031464532303170
:101D4000323031323031313836003346463230317C
:101D50003230313130323046430033464632323150
:101D60003232313232313230310033464632323063
:101D7000323230323230323030003146453230315A
:101D8000323231323231323345003346463032302E
:101D9000303230303230334646003230313230313A
:101DA0003346463230313230310032314632303112
:101DB00033464632303032303000334646303630EB
:101DC00030393031303832303700334646303031F8
:101DD0003030313030313030310033464631303000
:101DE00030383031303033464600334646313030BB
:101DF0003046453030313346460031464533303386
:101E0000323031333033314645003346463232309A
:101E100032323032323031433000314645323032A6
:101E20003230413230363146460033464632323067
:101E30003233303232383143370031433632323187
:101E40003232313232313139450032303032303095
:101E50003346463230303230300033464530303150
:101E60003030313030313346450033464330303244
:101E70003030313030323346430033464630303232
:101E80003030343030323346460033384630353027
:101E9000303230303530333846003338303034303B
:101EA000303346303430333830003230333230352E
:101EB0003237393238313330310031464532303102
:101EC0003230313230313146450030343030383004
:101ED00031303032303033464600314333323035E2
:101EE00032303932313131453100313236323231EE
:101EF00032323132323131444500303630304130C7
:101F000031323032323033464600334533323231AB
:101F1000323231323231323145003346463232319B
:101F200032323132323132314500323030323230B9
:101F30003232303232303346460033444632323168
:101F4000323231323231334446003345303232306E
:101F50003232303232303346460030343830343862
:101F60003034383034383034380031383131384555
:101F70003033303143363230360030434331333240
:101F8000323244313432303835003034343346461E
:101F90003034343346463034340030303030303032
:101FA0003346413030303030300030433031303023
:101FB0003230443131303045300030313030313022
:101FC0003046453031303031300030303030313013
:101FD0003031303031303030300031353030453014
:101FE00031463030453031353000303031303045D9
:101FF00030333031433032303000303230304330E3
:1020000031303030433030323000303030303030EA
:1020100030303000303230303530303838313034D4
:1020200032303200323032313034303838303530BE
:1020300030323000303031303031303031303031CA
:102040003030310030434331323233464631313261
:102050003043430030303200334646323031323084
:102060003132303132303100323031323031323091
:10207000313230313346460032464600303031305E
:1020800032320030303130303230303000303032A7
:102090003030343030323030323030340033303061
:1020A0003043303033303030433030330030303034
:1020B00031433030303031433030303000314646FB
:1020C0003131313132393146443030310032303102
:1020D0003230313145453031303030300030303001
:1020E00030313031454532303132303100304543C6
:1020F00031313232333931313230454300303030D2
:102100003100303031310030313030003031303159
:102110000030313130003031313100313030300079
:102120003130313000313031310031313030003137
:0E213000313031003131313000313131310088
:020000040003F7
:10E000000D9489F10D94B2F10D94B2F10D94B2F129
:10E010000D94B2F10D94B2F10D94B2F10D94B2F1F0
:10E020000D94B2F10D94B2F10D94B2F10D94B2F1E0
:10E030000D94B2F10D94B2F10D94B2F10D94B2F1D0
:10E040000D94B2F10D94B2F10D94B2F10D94B2F1C0
:10E050000D94B2F10D94B2F10D94B2F10D94B2F1B0
:10E060000D94B2F10D94B2F10D94B2F10D94B2F1A0
:10E070000D94B2F10D94B2F10D94B2F10D94B2F190
:10E080000D94B2F10D94B2F10D94B2F10D94B2F180
:10E090000D94B2F10D94B2F10D94B2F10D94B2F170
:10E0A0000D94B2F10D94B2F10D94B2F10D94B2F160
:10E0B0000D94B2F10D94B2F10D94B2F10D94B2F150
:10E0C0000D94B2F10D94B2F10D94B2F10D94B2F140
:10E0D0000D94B2F10D94B2F10D94B2F10D94B2F130
:10E0E0000D94B2F141546D656761323536300041AF
:10E0F000726475696E6F206578706C6F72657220DE
:10E1000073746B3530305632206279204D4C530099
:10E11000426F6F746C6F616465723E004875683F52
:10E1200000436F6D70696C6564206F6E203D200048
:10E130004350552054797065202020203D20005FF9
:10E140005F4156525F415243485F5F3D2000415658
:10E1500052204C696243205665723D20004743437C
:10E160002056657273696F6E203D20004350552024
:10E1700049442020202020203D20004C6F7720663D
:10E18000757365202020203D20004869676820665F
:10E190007573652020203D200045787420667573D6
:10E1A00065202020203D20004C6F636B2066757336
:10E1B000652020203D20004D617220203720323024
:10E1C000313300312E362E3800342E332E350056A2
:10E1D00023202020414444522020206F7020636F70
:10E1E00064652020202020696E73747275637469E1
:10E1F0006F6E2061646472202020496E74657272B3
:10E20000757074006E6F20766563746F7200726A49
:10E210006D702020006A6D70200057686174207056
:10E220006F72743A00506F7274206E6F7420737541
:10E2300070706F72746564004D7573742062652030
:10E2400061206C6574746572002000577269747483
:10E25000696E672045450052656164696E672045B7
:10E26000450045452065727220636E743D00504F35
:10E27000525400303D5A65726F2061646472003FF1
:10E280003D43505520737461747300403D454550C3
:10E29000524F4D207465737400423D426C696E6B41
:10E2A000204C454400453D44756D70204545505215
:10E2B0004F4D00463D44756D7020464C415348001B
:10E2C000483D48656C70004C3D4C69737420492F83
:10E2D0004F20506F72747300513D51756974005234
:10E2E0003D44756D702052414D00563D73686F7707
:10E2F00020696E7465727275707420566563746FF0
:10E30000727300593D506F727420626C696E6B00BD
:10E310002A0011241FBECFEFD1E2DEBFCDBF01E046
:10E320000CBF12E0A0E0B2E0EEE1FDEF03E00BBFB6
:10E3300002C007900D92A030B107D9F712E0A0E01B
:10E34000B2E001C01D92AE30B107E1F70F9460F367
:10E350000D948DFE01E20EBF0FEF0DBF11241FBE05
:10E360000D9460F30D9400F020E030E040ED57E0B4
:10E3700005C0FA013197F1F72F5F3F4F2817390792
:10E38000C0F308959C01260F311DC901A0E0B0E043
:10E390002F5F3F4FABBFFC018791882361F08093D3
:10E3A000C6008091C00086FFFCCF8091C0008064D1
:10E3B0008093C000EACF08958DE08093C6008091DD
:10E3C000C00086FFFCCF8091C00080648093C000B5
:10E3D0008AE08093C6008091C00086FFFCCF8091C8
:10E3E000C00080648093C00008950F94C2F10F9420
:10E3F000DCF10895FC019081992359F09093C600B7
:10E400008091C00086FFFCCF8091C0008064809323
:10E41000C0003196992379F70895282F982F929567
:10E420009F70892F805D8A3308F0895F8093C600D2
:10E430008091C00086FFFCCF8091C00080648093F3
:10E44000C000822F8F70982F905D9A3308F0995FEB
:10E450009093C6008091C00086FFFCCF8091C000E1
:10E4600080648093C00008959C01FB01853691056E
:10E470001CF46330710594F0C90164E670E00F94F8
:10E480002EFE605D7F4F6093C6008091C00086FFC6
:10E49000FCCF8091C00080648093C0002B30310598
:10E4A00014F43297B4F0C90164E670E00F942EFEC4
:10E4B0006AE070E00F942EFE605D7F4F6093C600AF
:10E4C0008091C00086FFFCCF8091C0008064809363
:10E4D000C000C9016AE070E00F942EFEC0968093E0
:10E4E000C6008091C00086FFFCCF8091C000806490
:10E4F0008093C00008951F93182F8EE692EE60E07F
:10E500000F94C2F11093C6008091C00086FFFCCF2B
:10E510008091C00080648093C0000F94DCF11F9153
:10E5200008952F923F924F925F926F927F928F92B7
:10E530009F92AF92BF92CF92DF92EF92FF920F9392
:10E540001F93DF93CF93CDB7DEB762970FB6F894E2
:10E55000DEBF0FBECDBF382E622ECA01DB015C01CB
:10E560006D01772420E2222E2E010894411C511CBB
:10E570008BC081E0A81680E0B80681E0C80680E084
:10E58000D80628F0C601AA27BB270F940DF2BB2797
:10E59000AD2D9C2D8B2D0F940DF28A2D0F940DF225
:10E5A0002092C6008091C00086FFFCCF8091C00001
:10E5B00080648093C0009DE29093C6008091C0006B
:10E5C00086FFFCCF8091C00080648093C0002092C1
:10E5D000C6008091C00086FFFCCF8091C00080649F
:10E5E0008093C00019828601750188249924A1E0D6
:10E5F0003A1651F03A1620F0B2E03B1661F409C029
:10E600000BBFF701779007C0C7010F9477FE782EF4
:10E6100002C0F7017080872D0F940DF22092C60082
:10E620008091C00086FFFCCF8091C0008064809301
:10E63000C000872D8052F401EF70F0708F3520F408
:10E64000E40DF51D708204C0E40DF51D8EE280839B
:10E650000894E11CF11C011D111D0894811C911CE2
:10E6600090E18916910409F0C2CF80E190E0A0E02A
:10E67000B0E0A80EB91ECA1EDB1E198AC2010F9493
:10E68000FAF10F94DCF16A94662009F072CF629679
:10E690000FB6F894DEBF0FBECDBFCF91DF911F91B3
:10E6A0000F91FF90EF90DF90CF90BF90AF909F9031
:10E6B0008F907F906F905F904F903F902F90089534
:10E6C0002F923F924F925F926F927F928F929F9282
:10E6D000AF92BF92CF92DF92EF92FF920F931F9370
:10E6E000DF93CF93CDB7DEB7CD53D1400FB6F894BB
:10E6F000DEBF0FBECDBF01E20EBF0FEF0DBF94B75F
:10E70000F894A89514BE80916000886180936000A1
:10E7100010926000789493FF05C0E0910002F091A0
:10E7200001021995279A2F9A8091C00082608093E8
:10E73000C00080E18093C40088E18093C1000000A4
:10E74000EE24FF24870144E0A42EB12CCC24DD2448
:10E7500024C0C5010197F1F70894E11CF11C011DCB
:10E76000111D21E2E2162EE4F20620E0020720E06D
:10E77000120718F031E0C32ED12CC801B70127ECE5
:10E780003BE140E050E00F9441FE611571058105C9
:10E79000910519F485B1805885B98091C00087FD35
:10E7A00003C0C114D104A9F2A6014F5F5F4FC25E3E
:10E7B000DE4F59834883CE51D140C25EDE4F8881FF
:10E7C0009981CE51D140019711F00D9410FEC05D9A
:10E7D000DE4F19821882C053D14060E0C15DDE4F28
:10E7E0001882CF52D14088249924C35DDE4F19820C
:10E7F0001882CD52D140C05EDE4F188219821A8233
:10E800001B82C052D140CE5CDE4F188219821A8220
:10E810001B82C253D140EE24FF2487010BBFF701B6
:10E8200007911691C45CDE4F19830883CC53D14005
:10E830000D940BFEC25EDE4F28813981CE51D1404E
:10E840002130310509F52091C600C25EDE4F1982E4
:10E850001882CE51D14022C02F5F3F4F4F4F5F4FA4
:10E86000213082E138078AE7480780E0580780F0C6
:10E87000C45CDE4FE881F981CC53D140EF5FFF4F9C
:10E8800019F0EE27FF27099420E030E040E050E047
:10E890008091C00087FFE0CF2091C600C35DDE4FAE
:10E8A00048815981CD52D1404F5F5F4FC35DDE4FEC
:10E8B00059834883CD52D140213209F063C64A3092
:10E8C000510508F05FC60894811C911C53E0851621
:10E8D000910409F059C600E010E018C081E280936D
:10E8E000C6008091C00086FFFCCF8091C00080648C
:10E8F0008093C0002F5F3F4F2931310579F70F9486
:10E90000DCF10F5F1F4F0530110519F020E030E0FA
:10E91000E5CF10920A0210920B0210920C02109294
:10E920000D02109206021092070210920802109235
:10E930000902109202021092030210920402109235
:10E9400005028FEE90EE60E00F94F5F180E191EE1C
:10E9500060E00F94C2F18091C00087FFFCCF9091DE
:10E96000C600903608F09F759032B8F09093C600BC
:10E970008091C00086FFFCCF8091C00080648093AE
:10E98000C000A0E2A093C6008091C00086FFFCCF2B
:10E990008091C00080648093C000983409F4D7C18E
:10E9A0009934B8F4923409F459C1933458F490333B
:10E9B00019F1903308F4E3C59F33A1F1903409F0C5
:10E9C000DEC5BDC0953409F470C1963409F0D7C5D1
:10E9D00098C1923509F42BC2933538F49C3409F46C
:10E9E000F5C1913509F0CBC518C2963509F445C279
:10E9F000993509F0C4C567C483E792EE62E00F94CD
:10EA0000F5F110920602109207021092080210927D
:10EA1000090210920A0210920B0210920C0210923C
:10EA20000D0213C18FE792EE62E00F94F5F18FEEC5
:10EA300090EE60E00F94F5F181E291EE60E00F94CA
:10EA4000C2F187EB91EE60E00F94F5F180E391EE77
:10EA500060E00F94C2F184EE90EE60E00F94F5F167
:10EA60008FE391EE60E00F94C2F186E090E061E008
:10EA700070E00F9434F20F94DCF18DE591EE60E0DC
:10EA80000F94C2F189EC91EE60E00F94F5F18EE401
:10EA900091EE60E00F94C2F183EC91EE60E00F9490
:10EAA000F5F18CE691EE60E00F94C2F18EE10F94E7
:10EAB0000DF288E90F940DF281E00F940DF20F949E
:10EAC000DCF18BE791EE60E00F94C2F119E0E0E039
:10EAD000F0E010935700E4918E2F0F940DF20F94F5
:10EAE000DCF18AE891EE60E00F94C2F1E3E0F0E03F
:10EAF00010935700E4918E2F0F940DF20F94DCF1D8
:10EB000089E991EE60E00F94C2F1E2E0F0E0109349
:10EB10005700E4918E2F0F940DF20F94DCF188EAE8
:10EB200091EE60E00F94C2F1E1E0F0E01093570045
:10EB30001491812F0F940DF20F94DCF107CF8BE825
:10EB400092EE62E00F94F5F18BE492EE60E00F94A8
:10EB5000F5F10F94DCF100E010E019C0C8016F2D51
:10EB60000F947FFEFF2031F489E492EE60E00F9471
:10EB7000C2F10BC0F092C6008091C00086FFFCCFAE
:10EB80008091C00080648093C0000F5F1F4FC80158
:10EB900081519F41A0E0B0E0ABBFFC01F790BAE229
:10EBA000FB1621F0E2E000301E07C1F60F94DCF105
:10EBB0000F94DCF187E592EE60E00F94F5F10F948D
:10EBC000DCF1CC24DD2400E010E01EC0C8010F946D
:10EBD00077FEF82E882331F489E492EE60E00F94FA
:10EBE000C2F10BC08093C6008091C00086FFFCCFAD
:10EBF0008091C00080648093C000FE1419F00894D6
:10EC0000C11CD11C0F5F1F4FC80181519F41A0E063
:10EC1000B0E0ABBFFC01E790FAE2EF1621F022E092
:10EC20000030120799F60F94DCF10F94DCF182E6C4
:10EC300092EE60E00F94C2F1C60161E070E00F94C3
:10EC400034F20F94DCF10F94DCF110920202109276
:10EC50000302109204021092050278CE89E992EE26
:10EC600062E00F94F5F1279A2F9A16C02F9880E052
:10EC700090E0E0EDF7E03197F1F7019684369105E9
:10EC8000C1F72F9A80E090E0E0EDF7E03197F1F7DF
:10EC9000019684369105C1F78091C00087FFE6CFC9
:10ECA0008091C00087FFFCCF64C485EA92EE62E0E9
:10ECB0000F94F5F140910202509103026091040219
:10ECC0007091050281E020E10F9491F2809102029F
:10ECD00090910302A0910402B091050280509F4FD1
:10ECE000AF4FBF4F8093020290930302A0930402A0
:10ECF000B093050280509041A040B04008F426CE69
:10ED0000A4CF83EB92EE62E00F94F5F140910602FE
:10ED100050910702609108027091090280E020E1A1
:10ED20000F9491F28091060290910702A09108023F
:10ED3000B091090280509F4FAF4FBF4F80930602A2
:10ED400090930702A0930802B0930902FFCD80ECD4
:10ED500092EE62E00F94F5F183E792EE60E00F949B
:10ED6000F5F18FE792EE60E00F94F5F18BE892EE0B
:10ED700060E00F94F5F189E992EE60E00F94F5F10F
:10ED800085EA92EE60E00F94F5F183EB92EE60E09D
:10ED90000F94F5F180EC92EE60E00F94F5F187ECC2
:10EDA00092EE60E00F94F5F188ED92EE60E00F9442
:10EDB000F5F18FED92EE60E00F94F5F18AEE92EEB0
:10EDC00060E00F94F5F183E093EEBDCD87EC92EE19
:10EDD00062E00F94F5F181E40F947BF282E40F94EA
:10EDE0007BF283E40F947BF284E40F947BF285E45E
:10EDF0000F947BF286E40F947BF287E40F947BF20E
:10EE000088E40F947BF28AE40F947BF28BE40F94F6
:10EE10007BF28CE40F947BF299CD88ED92EE62E068
:10EE20000F94F5F1772473948824992409C48FED05
:10EE300092EE62E00F94F5F140910A0250910B02BC
:10EE400060910C0270910D0282E020E10F9491F22A
:10EE500080910A0290910B02A0910C02B0910D02D8
:10EE600080509F4FAF4FBF4F80930A0290930B0289
:10EE7000A0930C02B0930D0269CD8AEE92EE62E08F
:10EE80000F94F5F184EE90EE60E00F94F5F18FECC5
:10EE900091EE60E00F94F5F1662477244301CC5D98
:10EEA000DE4F19821882C452D140D401C301B695F5
:10EEB000A79597958795CA5DDE4F88839983AA8326
:10EEC000BB83C652D140CC5DDE4FA881B981C4520C
:10EED000D1401196CC5DDE4FB983A883C452D14096
:10EEE000CD0162E070E00F9434F2B0E2B093C6005E
:10EEF0008091C00086FFFCCF8091C0008064809329
:10EF0000C000EDE2E093C6008091C00086FFFCCF18
:10EF10008091C00080648093C000F0E2F093C6004E
:10EF20008091C00086FFFCCF8091C00080648093F8
:10EF3000C000CA5DDE4FE880F9800A811B81C6529D
:10EF4000D140BB27A12F902F8F2D0F940DF2CA5DBA
:10EF5000DE4F8881C652D1400F940DF2B0E2FB2EF5
:10EF6000F092C6008091C00086FFFCCF8091C00067
:10EF700080648093C0000DE30093C6008091C000C0
:10EF800086FFFCCF8091C00080648093C00010E2B7
:10EF90001093C6008091C00086FFFCCF8091C00016
:10EFA00080648093C0008BBEF3012791C65DDE4F65
:10EFB0002883CA52D140A22EBB24CC24DD2408943D
:10EFC000611C711C811C911C8BBEF3018791282E42
:10EFD0003324442455240894611C711C811C911C09
:10EFE0008BBEF3013791C55DDE4F3883CB52D140E4
:10EFF0000894611C711C811C911C8BBEF30147910C
:10F00000C45DDE4F4883CC52D140ADEFEA2EAFEF66
:10F01000FA2EAFEF0A2FAFEF1A2F6E0C7F1C801E57
:10F02000911E142D032DF22CEE24EA0CFB1C0C1D5A
:10F030001D1D0F940DF220E22093C6008091C000A8
:10F0400086FFFCCF8091C00080648093C000C65DC5
:10F05000DE4F8881CA52D1400F940DF230E23093D6
:10F06000C6008091C00086FFFCCF8091C000806404
:10F070008093C000C45DDE4F8881CC52D1400F9494
:10F080000DF240E24093C6008091C00086FFFCCFA5
:10F090008091C00080648093C000C55DDE4F888190
:10F0A000CB52D1400F940DF250E25093C6008091A4
:10F0B000C00086FFFCCF8091C00080648093C000B8
:10F0C0008FEFE8168FEFF80680E0080780E018075A
:10F0D00031F484E092EE60E00F94C2F1DFC0D80119
:10F0E000C7018070907CA070B0708050904CA040A0
:10F0F000B040D1F52FEF3FE340E050E0E222F322B1
:10F1000004231523CA5DDE4FA880B980CA80DB8046
:10F11000C652D140AE0CBF1CC01ED11EAA0CBB1CD7
:10F12000CC1CDD1C8EE092EE60E00F94C2F1BB2798
:10F13000A12F902F8F2D0F940DF28E2D0F940DF285
:10F1400030E23093C6008091C00086FFFCCF8091F2
:10F15000C00080648093C0004EE34093C60080915D
:10F16000C00086FFFCCF87C08EE09EEFA0E0B0E03D
:10F17000E822F9220A231B239CE0E91694E9F90608
:10F1800090E0090790E0190709F088C0C45DDE4FE0
:10F19000A881CC52D140EA2EFF2400E010E0102FCD
:10F1A0000F2DFE2CEE24C55DDE4FB881CB52D14031
:10F1B000EB0EF11C011D111DD601C501817090706F
:10F1C000A070B070DC0199278827E80EF91E0A1F8D
:10F1D0001B1F20EF30E040E050E0A222B322C42207
:10F1E000D52241E1AA0CBB1CCC1CDD1C4A95D1F7F1
:10F1F000EA0CFB1C0C1D1D1D81E090E0A0E0B0E0BE
:10F20000282239224A225B2235E1220C331C441C7D
:10F21000551C3A95D1F7E20CF31C041D151D57013E
:10F220006801AA0CBB1CCC1CDD1C85E192EE60E0E1
:10F230000F94C2F1C801AA27BB270F940DF2BB2778
:10F24000A12F902F8F2D0F940DF28E2D0F940DF274
:10F2500090E29093C6008091C00086FFFCCF809121
:10F26000C00080648093C000AEE3A093C60080918C
:10F27000C00086FFFCCF8091C00080648093C000F6
:10F28000C601AA27BB270F940DF2BB27AD2D9C2DDD
:10F290008B2D0F940DF28A2D0F940DF20F94DCF14B
:10F2A000CC5DDE4FE881F981C452D140F99709F471
:10F2B0004DCBF4E0EF2EF12C012D112D6E0C7F1CA7
:10F2C000801E911EF2CD83E093EE62E00F94F5F183
:10F2D0008AE192EE60E00F94C2F18091C00087FF56
:10F2E000FCCF1091C6001F751093C6008091C0001E
:10F2F00086FFFCCF8091C00080648093C0000F9493
:10F30000DCF1812F81548A3108F036C1163409F4BA
:10F3100095C0173490F4133409F44EC0143430F40B
:10F320001134F1F0123409F01DC130C0143409F465
:10F3300059C0153409F016C16BC01A3409F4C4C0A1
:10F340001B3438F4173409F48FC0183409F00AC19B
:10F35000A1C01B3409F4D2C01C3409F003C1E8C0B9
:10F360008FEF81B90DC082B1809582B980E090E0C5
:10F37000E0EDF7E03197F1F70196883C9105C1F790
:10F380008091C00087FFEFCF12B8EFC08FEF84B934
:10F390000DC085B1809585B980E090E0E0EDF7E0A3
:10F3A0003197F1F70196883C9105C1F78091C00033
:10F3B00087FFEFCF15B8D9C08FEF87B90DC088B1DF
:10F3C000809588B980E090E0E0EDF7E03197F1F7C3
:10F3D0000196883C9105C1F78091C00087FFEFCF6F
:10F3E00018B8C3C08FEF8AB90DC08BB180958BB9A7
:10F3F00080E090E0E0EDF7E03197F1F70196883C8E
:10F400009105C1F78091C00087FFEFCF1BB8ADC059
:10F410008FEF8DB90DC08EB180958EB980E090E0F0
:10F42000E0EDF7E03197F1F70196883C9105C1F7DF
:10F430008091C00087FFEFCF1EB897C08FEF80BBD1
:10F440000DC081B3809581BB80E090E0E0EDF7E0F6
:10F450003197F1F70196883C9105C1F78091C00082
:10F4600087FFEFCF11BA81C08FEF83BB0DC084B38C
:10F47000809584BB80E090E0E0EDF7E03197F1F714
:10F480000196883C9105C1F78091C00087FFEFCFBE
:10F4900014BA6BC08FEF809301010FC080910201FD
:10F4A00080958093020180E090E0E0EDF7E03197F5
:10F4B000F1F70196883C9105C1F78091C00087FF64
:10F4C000EDCF1092020151C08FEF809304010FC065
:10F4D0008091050180958093050180E090E0E0ED4A
:10F4E000F7E03197F1F70196883C9105C1F78091DB
:10F4F000C00087FFEDCF1092050137C08FEF8093DA
:10F5000007010FC08091080180958093080180E079
:10F5100090E0E0EDF7E03197F1F70196883C910536
:10F52000C1F78091C00087FFEDCF109208011DC088
:10F530008FEF80930A010FC080910B01809580931B
:10F540000B0180E090E0E0EDF7E03197F1F70196F4
:10F55000883C9105C1F78091C00087FFEDCF1092E4
:10F560000B0103C085E292EEEEC98091C00087FFD7
:10F57000FCCF8091C600EAC988E392EEE4C98CE131
:10F5800091EEE1C988249924933011F1943028F444
:10F59000913089F09230B8F408C0953061F195301F
:10F5A000F0F0963009F048C043C02B3109F042C951
:10F5B00091E06BE13FC96227C15DDE4F2883CF52E6
:10F5C000D14092E037C9B22FA0E0622793E032C960
:10F5D000822F90E0A82BB92B622794E02BC92E3004
:10F5E00009F039C3622795E0C05DDE4F19821882A9
:10F5F000C053D1401FC9E1E0F0E0EC0FFD1FC05D3A
:10F60000DE4F08811981C053D140E00FF11F2083E4
:10F610000F5F1F4FC05DDE4F19830883C053D14079
:10F6200062270A171B0709F005C9D80196E002C92D
:10F63000261709F010C303C0973009F0FBC87724E0
:10F640009981933109F412C19431C8F4963009F4C8
:10F65000D8C0973050F4923009F406C1933009F4C1
:10F660006DC0913009F059C253C0913109F477C08F
:10F67000923108F0BBC0903109F04FC2F5C098310B
:10F6800009F487C0993150F4953109F4EFC09531F0
:10F6900008F4C6C1963109F040C2C2C19A3109F4DA
:10F6A0006CC09A3108F491C09B3109F45BC09D3164
:10F6B00009F033C29D81903359F48F81882311F46E
:10F6C0009EE11CC0813011F091E018C098E916C08D
:10F6D000892F807591F0903539F4E0E0F0E089E011
:10F6E0008093570094910AC0983539F4E3E0F0E034
:10F6F00089E080935700949101C090E01A821B82A8
:10F700008D818C831D829E831F8227E030E009C299
:10F710001A8288E08B8381E48C8386E58D8382E581
:10F720008E8389E48F8383E5888780E589878FE5E9
:10F730008A8782E38B872BE030E0F3C18A818139AD
:10F7400041F0823941F0803911F48FE005C080E04A
:10F7500003C082E001C08AE01A828B8344C0772410
:10F76000739482C08D81882311F48EE12CC0813086
:10F7700011F081E028C088E926C01A82E1E0F0E0BB
:10F7800089E08093570084918B831C8224E030E0D1
:10F79000C8C18B81803589F48C81883039F4E2E0EE
:10F7A000F0E089E08093570084910DC0E0E0F0E044
:10F7B00089E080935700849106C0E3E0F0E089E09F
:10F7C0008093570084911A82DFCF8D81836C99E0FA
:10F7D000E1E0F0E0082E90935700E89507B600FCB2
:10F7E000FDCF1A821B8223E030E09BC180EC8A832C
:10F7F000CE5CDE4F188219821A821B82C253D1401E
:10F800008EC18A8190E0A0E0B0E0582F44273327D2
:10F8100022278B8190E0A0E0B0E0DC0199278827C7
:10F82000282B392B4A2B5B2B8D8190E0A0E0B0E098
:10F83000282B392B4A2B5B2B8C8190E0A0E0B0E089
:10F84000BA2FA92F982F8827282B392B4A2B5B2BCF
:10F85000220F331F441F551FC05EDE4F288339839C
:10F860004A835B83C052D1401A8259C13A81C95C34
:10F87000DE4F3883C753D140CA5CDE4F1882C6536F
:10F88000D1408B81C82EDD24CA5CDE4F488159816E
:10F89000C653D140C42AD52A933109F082C0CE5C28
:10F8A000DE4F88819981AA81BB81C253D1408050AB
:10F8B000904CA340B04030F583E0CE5CDE4FE88052
:10F8C000F9800A811B81C253D140F70100935B008C
:10F8D00080935700E89507B600FCFDCFCE5CDE4F65
:10F8E000088119812A813B81C253D14000501F4FAA
:10F8F0002F4F3F4FCE5CDE4F088319832A833B8313
:10F90000C253D140C05EDE4F488159816A817B81FC
:10F91000C052D140DE011B9631E08C9111962C91A2
:10F9200011971296C75CDE4F2883C953D140C85C3B
:10F93000DE4F1882C853D14090E0C85CDE4FE881AA
:10F94000F981C853D1408E2B9F2B0C01FA01609393
:10F950005B0030935700E89511244E5F5F4F6F4F67
:10F960007F4F0EEFE02E0FEFF02ECE0CDF1CC114F8
:10F97000D10499F685E0C05EDE4F088119812A81A5
:10F980003B81C052D140F80120935B008093570027
:10F99000E89507B600FCFDCF81E180935700E8951C
:10F9A00035C0C05EDE4F88819981AA81BB81C0527B
:10F9B000D140B695A795979587957C018601ABE0D8
:10F9C000AA2EB12CAC0EBD1E0BC0D5016D915D01F0
:10F9D000C7010F947FFE0894E11CF11C01501040F8
:10F9E0000115110591F7A60160E070E0440F551F65
:10F9F000661F771FC05EDE4FE880F9800A811B8199
:10FA0000C052D1404E0D5F1D601F711F1A82C05E33
:10FA1000DE4F488359836A837B83C052D1407FC0C5
:10FA2000FA80C55CDE4FF882CB53D140C65CDE4F16
:10FA30001882CA53D1408B81C82EDD24C65CDE4FAC
:10FA400008811981CA53D140C02AD12A1A828981DA
:10FA5000BE016D5F7F4F843121F59601C05EDE4FA0
:10FA6000E880F9800A811B81C052D1400BBFF701A9
:10FA700087919691DB018C9311969C936E5F7F4FDB
:10FA8000D801C7010296A11DB11DC05EDE4F88835B
:10FA90009983AA83BB83C052D14022503040F1F6F3
:10FAA00036C0C05EDE4F288139814A815B81C052F9
:10FAB000D1400894C108D108760100E010E0089414
:10FAC000C11CD11C0894E11CF11C011D111DE20E8A
:10FAD000F31E041F151F21BDBB27A52F942F832FB5
:10FAE00082BD2F5F3F4F4F4F5F4FF89A80B5DB01CC
:10FAF0008D93BD012E153F054007510761F7C05E8C
:10FB0000DE4F288339834A835B83C052D1409601FC
:10FB10002D5F3F4FFB01108204C080EC8A8322E0FE
:10FB200030E08BE18093C6008091C00086FFFCCF5F
:10FB30008091C00080648093C000C15DDE4FF88179
:10FB4000CF52D140F093C6008091C00086FFFCCF19
:10FB50008091C00080648093C000432F3093C60022
:10FB60008091C00086FFFCCF8091C00080648093AC
:10FB7000C000922F2093C6008091C00086FFFCCF6A
:10FB80008091C00080648093C0008EE08093C600A6
:10FB90008091C00086FFFCCF8091C000806480937C
:10FBA000C00065E1C15DDE4FE880CF52D1406E25D7
:10FBB00069276427FE01319610C090819093C6009A
:10FBC0008091C00086FFFCCF31968091C000806498
:10FBD0008093C0006927215030402115310569F715
:10FBE0006093C6008091C00086FFFCCF8091C0006A
:10FBF00080648093C00085B1805885B9772081F4F6
:10FC0000C15DDE4F0881CF52D1400F5FC15DDE4F35
:10FC10000883CF52D14090E0A0E0B0E00D941AF4F8
:10FC200027982F9880E090E020ED37E0F901319798
:10FC3000F1F7019684369105C9F700008091C00064
:10FC40008D7F8093C00081E180935700E895EE2777
:10FC5000FF270994FFCF90E00D941AF497FB092E2B
:10FC600007260AD077FD04D02ED006D000201AF443
:10FC7000709561957F4F0895F6F7909581959F4F08
:10FC80000895A1E21A2EAA1BBB1BFD010DC0AA1FDD
:10FC9000BB1FEE1FFF1FA217B307E407F50720F0F5
:10FCA000A21BB30BE40BF50B661F771F881F991F70
:10FCB0001A9469F760957095809590959B01AC01B9
:10FCC000BD01CF010895AA1BBB1B51E107C0AA1FAC
:10FCD000BB1FA617B70710F0A61BB70B881F991FED
:10FCE0005A95A9F780959095BC01CD010895F99991
:10FCF000FECF92BD81BDF89A992780B50895262F31
:10FD0000F999FECF1FBA92BD81BD20BD0FB6F89400
:0EFD1000FA9AF99A0FBE01960895F894FFCF63
:00000001FF
