:100000000C945A010C948B010C948B010C948B0171
:100010000C948B010C948B010C948B010C948B0130
:100020000C948B010C948B010C948B010C948B0120
:100030000C948B010C948B010C948B010C948B0110
:100040000C948B010C948B010C948B010C948B0100
:100050000C948B010C948B010C948B010C94630514
:100060000C948B010C942D050C9403050C948B01BE
:100070000C948B010C948B010C948B010C948B01D0
:100080000C948B010C948B010C948B010C948B01C0
:100090000C948B010C948B010C948B010C948B01B0
:1000A0000C948B010C948B010C948B010C948B01A0
:1000B0000C948B010C948B010C948B010C948B0190
:1000C0000C948B010C948B010C948B010C948B0180
:1000D0000C948B010C948B010C948B010C948B0170
:1000E0000C948B010C94530B0C943E020C9444031F
:1000F0000C94C3020C946D030C94500B0C94DC0113
:100100000C943C030C9438030C9457030C94320B5E
:100110000C945B030C942F0B0C9465030C94470B0D
:100120000C9469030C9472030C94290B0C944D03EA
:100130000C9430020C9451030C94AD050C94730391
:100140000C9440030C943E0B0C944D0B0C94560BEA
:100150000C94440B0C943B0B0C94380B0C94320312
:100160000C945F030C94CD010C94110C0C9476024A
:100170000C94410B0C94A0010C945C0B0C944A0B56
:100180000C94590B0C9477030C9447030C94350B87
:1001900000002100240027002A002D003000330039
:1001A00001010000040107010A01000022002500EE
:1001B00028002B002E003100340002010000050150
:1001C00008010B01000020002300260029002C005C
:1001D0002F0032000001000003010601090105059E
:1001E0000505070508080808020202020A0A0808AD
:1001F00004040404010101010101010103030303DB
:1002000003030303040707070C0C0C0C0C0C0C0C69
:100210000202020206060606060606060B0B0B0B7A
:100220000B0B0B0B0102102020080810204010209F
:1002300040800201020108040201010204081020AA
:1002400040808040201008040201800402018040A8
:100250002010080402010804020101020408102011
:100260004080010204081020408000000A0B0209AF
:100270000C0D0E0807030401000000000000000040
:10028000000000000000000000000000000000006E
:10029000000000000000121110000000000000002B
:1002A000000000000000000000000000000000004E
:1002B000AD05110C11241FBECFEFD1E2DEBFCDBFC3
:1002C00000E00CBF27E0ACE7B6E001C01D92AF3202
:1002D000B207E1F716E0A0E0B2E0E2ECFCE100E0FA
:1002E0000BBF02C007900D92AC37B107D9F711E0F0
:1002F000C9E5D1E000E006C021970109802FFE0189
:100300000E94290CC835D10780E00807A9F70E9490
:10031000DD050C944F0E0C940000FC012481358106
:100320006217730720F480819181009729F410925D
:10033000810681E896E00895860F971F0895089535
:10034000AF92BF92CF92DF92EF92FF920F931F93E3
:10035000CF93DF936C017B018B01040F151FEB0121
:100360005E01AE18BF08C017D10759F06991D601D8
:10037000ED91FC910190F081E02DC6011995892B3A
:1003800079F7C501DF91CF911F910F91FF90EF9009
:10039000DF90CF90BF90AF900895FC01538D448DB6
:1003A000252F30E0842F90E0821B930B541710F020
:1003B000CF96089501970895FC01918D828D98172D
:1003C00061F0A28DAE0FBF2FB11D5D968C91928D05
:1003D0009F5F9F73928F90E008958FEF9FEF089536
:1003E0002FB7F8948091840690918506A091860697
:1003F000B09187062FBF8093900690939106A093AB
:100400009206B093930688E896E00E94DC0197FF7D
:1004100026C02FB7F8948091840690918506A0910C
:100420008606B09187062FBF4091900650919106A5
:100430006091920670919306841B950BA60BB70BE7
:1004400040918C0650918D0660918E0670918F06BA
:1004500084179507A607B707B0F28FEF9FEF0895AF
:10046000FC01918D828D981731F0828DE80FF11D7E
:10047000858D90E008958FEF9FEF0895FC01918D99
:10048000228D892F90E0805C9F4F821B91098F7392
:100490009927089588E896E00E943E0221E0892B82
:1004A00009F420E0822F0895FC01A48DA80FB92F34
:1004B000B11DA35ABF4F2C91848D90E001968F738C
:1004C0009927848FA689B7892C93A089B1898C91AB
:1004D000837080648C93938D848D981306C00288FA
:1004E000F389E02D80818F7D80830895EF92FF92C4
:1004F0000F931F93CF93DF93EC0181E0888F9B8D47
:100500008C8D98131AC0E889F989808185FF15C000
:100510009FB7F894EE89FF896083E889F989808123
:100520008370806480839FBF81E090E0DF91CF91F2
:100530001F910F91FF90EF900895F62E0B8D10E014
:100540000F5F1F4F0F731127E02E8C8D8E110CC083
:100550000FB607FCFACFE889F989808185FFF5CFCE
:10056000CE010E945402F1CFEB8DEC0FFD2FF11D57
:10057000E35AFF4FF0829FB7F8940B8FEA89FB890B
:1005800080818062CFCFCF93DF93EC01888D882369
:10059000B9F0AA89BB89E889F9898C9185FD03C0E6
:1005A000808186FD0DC00FB607FCF7CF8C9185FFCB
:1005B000F2CF808185FFEDCFCE010E945402E9CFBA
:1005C000DF91CF91089580E090E0892B29F00E947F
:1005D0004A0281110E94000080E090E0892B49F0DE
:1005E00080E090E0892B29F00E94000081110E9498
:1005F000000080E090E0892B49F080E090E0892BBA
:1006000029F00E94000081110E94000080E090E02B
:10061000892B49F080E090E0892B29F00E940000AE
:1006200081110C94000008958150823108F05AC065
:10063000E82FF0E08827E05EFC4F8F4F0C94290CE8
:1006400040034403320338033C03720347034D0362
:10065000510357035B035F036503690372036D0373
:1006600073037703809180008F77809380000895D3
:10067000809180008F7DF9CF80918000877FF5CFBA
:1006800084B58F7784BD089584B58F7DFBCF80912D
:10069000B0008F778093B00008958091B0008F7D77
:1006A000F9CF809190008F7780939000089580918A
:1006B00090008F7DF9CF80919000877FF5CF80915A
:1006C000A0008F778093A00008958091A0008F7D77
:1006D000F9CF8091A000877FF5CF809120018F779F
:1006E000809320010895809120018F7DF9CF809122
:1006F0002001877FF5CF1F93CF93DF93282F30E022
:10070000F901E659FD4F8491F901EC5DFD4FD4915B
:10071000F901E252FE4FC491CC23A9F0162F8111AA
:100720000E941403EC2FF0E0EE0FFF1FE655FE4F82
:10073000A591B4918FB7F894EC91111108C0D095A0
:10074000DE23DC938FBFDF91CF911F910895DE2BC5
:10075000F8CFCF93DF9390E0FC01EC5DFD4F249147
:1007600082529E4FFC0184918823D1F090E0880F43
:10077000991FFC01E057FE4FA591B491FC01E6558D
:10078000FE4FC591D49161110EC09FB7F8948C9122
:10079000E22FE0958E238C932881E223E8839FBF8C
:1007A000DF91CF9108958FB7F894EC91E22BEC9301
:1007B0008FBFF6CF3FB7F89480917D0690917E066B
:1007C000A0917F06B091800626B5A89B05C02F3F5B
:1007D00019F00196A11DB11D3FBFBA2FA92F982F67
:1007E0008827BC01CD01620F711D811D911D42E062
:1007F000660F771F881F991F4A95D1F70895FC014E
:1008000080819181009711F00C94CD0C08950F9385
:100810001F93CF93DF938C01EB01FC0180819181C9
:100820000097E1F06881798161157105A9F0428135
:1008300053812C813D814217530770F00E94480E6E
:100840008C819D81F801958384831D821C82DF91B8
:10085000CF911F910F9108950E94CD0C88819981AD
:10086000F801918380838A819B81938382838C8129
:100870009D8195838483198218821B821A82E5CF19
:100880000F931F93CF93DF93EC0188819981009799
:1008900059F02A813B812617370730F081E0DF913C
:1008A000CF911F910F9108958B016F5F7F4F0E9431
:1008B000560D009759F0998388831B830A832C81F6
:1008C0003D81232B59F7FC011082E8CF80E0E7CF70
:1008D000EF92FF920F931F93CF93DF93FB01019051
:1008E0000020E9F73197E61BF70BE1F07B018C0163
:1008F000DC011496CD91DC91CE0FDF1FBE010E946A
:100900004004882381F0F801208131818481958120
:10091000B701820F931F0E94480ED8011596DC93F1
:10092000CE93149781E0DF91CF911F910F91FF90AB
:10093000EF900895EF92FF920F931F93CF93DF9361
:100940001F921F92CDB7DEB78C0169831A82FC011A
:10095000E480F580FFEFEF1AFF0AB7010E94400420
:10096000882381F0F8012081318184819581BE0145
:100970006F5F7F4F820F931F0E94480EF801F58230
:10098000E48281E00F900F90DF91CF911F910F9142
:10099000FF90EF900895EF92FF920F931F93CF93E4
:1009A000DF93EC017B018A01BA010E944004288197
:1009B0003981811114C02115310519F0C9010E9436
:1009C000CD0C198218821D821C821B821A82CE01D4
:1009D000DF91CF911F910F91FF90EF9008951D83AC
:1009E0000C83B701C9010E94480EF1CFFC011182AE
:1009F0001082138212821582148250E040E061E579
:100A000075E00C94CB041F920F920FB60F92112435
:100A10000BB60F922F933F934F935F936F937F93F8
:100A20008F939F93AF93BF93EF93FF9388E896E0E4
:100A30000E945402FF91EF91BF91AF919F918F91CE
:100A40007F916F915F914F913F912F910F900BBECE
:100A50000F900FBE0F901F9018951F920F920FB618
:100A60000F9211240BB60F922F938F939F93EF93B6
:100A7000FF93E0919806F09199068081E0919E069F
:100A8000F0919F0682FD1DC090818091A1068F5F2D
:100A90008F732091A206821741F0E091A106F0E049
:100AA000E857F94F958F8093A106FF91EF919F91A1
:100AB0008F912F910F900BBE0F900FBE0F901F9034
:100AC00018958081F2CF1F920F920FB60F921124CA
:100AD0002F933F938F939F93AF93BF9380918406FF
:100AE00090918506A0918606B091870630917C068C
:100AF00023E0230F2D3758F50196A11DB11D20933A
:100B00007C068093840690938506A0938606B09316
:100B1000870680917D0690917E06A0917F06B09118
:100B200080060196A11DB11D80937D0690937E06DF
:100B3000A0937F06B0938006BF91AF919F918F9154
:100B40003F912F910F900FBE0F901F90189526E8A0
:100B5000230F0296A11DB11DD2CFE8E8F6E0138263
:100B6000128288EE93E0A0E0B0E084839583A683B0
:100B7000B7838AE492E09183808385EC90E0958747
:100B8000848784EC90E09787868780EC90E0918B57
:100B9000808B81EC90E0938B828B82EC90E0958B44
:100BA000848B86EC90E0978B868B118E128E138E41
:100BB000148E85E297E00C94F604CF93DF93CDB7C3
:100BC000DEB768970FB6F894DEBF0FBECDBF78943E
:100BD00084B5826084BD84B5816084BD85B5826042
:100BE00085BD85B5816085BD80916E0081608093F3
:100BF0006E0010928100809181008260809381005C
:100C0000809181008160809381008091800081606B
:100C1000809380008091B10084608093B1008091C6
:100C2000B00081608093B0008091910082608093D9
:100C3000910080919100816080939100809190005B
:100C40008160809390008091A10082608093A100D8
:100C50008091A10081608093A1008091A0008160BB
:100C60008093A00080912101826080932101809176
:100C70002101816080932101809120018160809316
:100C8000200180917A00846080937A0080917A00BC
:100C9000826080937A0080917A00816080937A00EC
:100CA00080917A00806880937A001092C100E09170
:100CB0009806F091990682E08083E0919406F09185
:100CC00095061082E0919606F09197068FEC80834E
:100CD0001092A006E0919C06F0919D0686E080832C
:100CE000E0919A06F0919B06808180618083E0917B
:100CF0009A06F0919B06808188608083E0919A0635
:100D0000F0919B06808180688083E0919A06F09143
:100D10009B0680818F7D808360E08DE00E94A90327
:100D200006E012E0FAE1CF2EF2E0DF2ED801FC90CF
:100D30000E5F1F4F61E08F2D0E94A90361E08F2D90
:100D40000E947B03C016D10689F7E6E4CE2EE2E0CE
:100D5000DE2E0AE112E0F801F0800E5F1F4F61E025
:100D60008F2D0E94A90360E08F2D0E947B03C01687
:100D7000D10689F757E7452E52E0552E61E3662EDE
:100D800062E0762E7BEE872E71E0972E88E896E063
:100D90000E943E02892BD1F3CE0101960E94F604F7
:100DA0000E94F00197FD06C0682FCE0101960E94B7
:100DB0009A04F6CFBE016F5F7F4F85E297E00E94F5
:100DC0000704CE0101960E94FF03009125071091B0
:100DD00026070115110571F0D8018D918D01882329
:100DE00049F0082E000C990B0E94370EF80131973C
:100DF0008083F2CF1A8219821C821B821E821D827E
:100E000060912507709126076115710541F04091A9
:100E1000290750912A07CE0101960E94CB04CE01EA
:100E200043960E94F60406E110E06EE475E0CE0100
:100E300043960E94680401501109B9F710E000E0E0
:100E40008D819E810817190708F035C3B801CE01BE
:100E500001960E948D01FC01808168E572E0813479
:100E600009F41CC3B801CE0101960E948D01DC017A
:100E70008C9168E672E0823409F410C3B801CE01A7
:100E800001960E948D01FC01808168E772E0833445
:100E900009F404C3B801CE0101960E948D01DC0162
:100EA0008C9168E872E0843409F4F8C2B801CE018C
:100EB00001960E948D01FC01808168E972E0853411
:100EC00009F4ECC2B801CE0101960E948D01DC014B
:100ED0008C9168EA72E0863409F4E0C2B801CE0170
:100EE00001960E948D01FC01808168EB72E08734DD
:100EF00009F4D4C2B801CE0101960E948D01DC0133
:100F00008C9168EC72E0883409F4C8C2B801CE0153
:100F100001960E948D01FC01808168ED72E08934A8
:100F200009F4BCC2B801CE0101960E948D01DC011A
:100F30008C9168EE72E08A3409F4B0C2B801CE0137
:100F400001960E948D01FC01808168EF72E08B3474
:100F500009F4A4C2B801CE0101960E948D01DC0102
:100F60008C9168E073E08C3409F498C2B801CE012A
:100F700001960E948D01FC01808168E173E08D344F
:100F800009F48CC2B801CE0101960E948D01DC01EA
:100F90008C9168E273E08E3409F480C2B801CE010E
:100FA00001960E948D01B801CE0101960E948D012B
:100FB000FC01808168E373E08F3409F46FC2B801EB
:100FC000CE0101960E948D01DC018C9168E473E0F2
:100FD000803509F463C2B801CE0101960E948D01EB
:100FE000FC01808168E573E0813509F457C2B801DE
:100FF000CE0101960E948D01DC018C9168E673E0C0
:10100000823509F44BC2B801CE0101960E948D01D0
:10101000FC01808168E773E0833509F43FC2B801C1
:10102000CE0101960E948D01DC018C9168E873E08D
:10103000843509F433C2B801CE0101960E948D01B6
:10104000FC01808168E973E0853509F427C2B801A5
:10105000CE0101960E948D01DC018C9168EA73E05B
:10106000863509F41BC2B801CE0101960E948D019C
:10107000FC01808168EB73E0873509F40FC2B80189
:10108000CE0101960E948D01DC018C9168EC73E029
:10109000883509F403C2B801CE0101960E948D0182
:1010A000FC01808168ED73E0893509F4F7C1B8016E
:1010B000CE0101960E948D01DC018C9168EE73E0F7
:1010C0008A3509F4EBC1B801CE0101960E948D0169
:1010D000FC01808168EF73E0803309F4DFC1B8015F
:1010E000CE0101960E948D01DC018C9168E074E0D4
:1010F000813309F4D3C1B801CE0101960E948D015C
:10110000FC01808168E174E0823309F4C7C1B80151
:10111000CE0101960E948D01DC018C9168E274E0A1
:10112000833309F4BBC1B801CE0101960E948D0141
:10113000FC01808168E374E0843309F4AFC1B80135
:10114000CE0101960E948D01DC018C9168E474E06F
:10115000853309F4A3C1B801CE0101960E948D0127
:10116000FC01808168E574E0863309F497C1B80119
:10117000CE0101960E948D01DC018C9168E674E03D
:10118000873309F48BC1B801CE0101960E948D010D
:10119000FC01808168E774E0883309F47FC1B801FD
:1011A000CE0101960E948D01DC018C9168E874E00B
:1011B000893309F473C1B801CE0101960E948D01F3
:1011C000FC01808168E974E08D3309F467C1B801DE
:1011D000CE0101960E948D01DC018C9168EA74E0D9
:1011E000853209F45BC1B801CE0101960E948D01E0
:1011F000FC01808168EB74E0863209F44FC1B801CC
:10120000CE0101960E948D01DC018C9168EC74E0A6
:10121000833209F443C1B801CE0101960E948D01C9
:10122000FC01808168ED74E0813209F437C1B801B6
:10123000CE0101960E948D01DC018C9168EE74E074
:101240008F3309F42BC1B801CE0101960E948D01A4
:10125000FC01808168EF74E08B3209F41FC1B80192
:10126000CE0101960E948D01DC018C9168E075E051
:101270008D3209F413C1B801CE0101960E948D018F
:10128000FC01808168E175E08A3209F407C1B80188
:10129000CE0101960E948D01DC018C9168E275E01F
:1012A0008F3209F4FBC0B801CE0101960E948D0176
:1012B000FC01808168E375E08E3509F4EFC0B80168
:1012C000CE0101960E948D01DC018C9168E475E0ED
:1012D000803209F4E3C0B801CE0101960E948D016D
:1012E000FC01808162E575E08C3309F4D7C0B80158
:1012F000CE0101960E948D01DC018C9162E675E0C1
:101300008E3309F4CBC0B801CE0101960E948D0145
:10131000FC01808162E775E08F3509F4BFC0B80138
:10132000CE0101960E948D01DC018C9162E875E08E
:10133000843209F4B3C0B801CE0101960E948D0138
:10134000B801CE0101960E948D01B801CE0101962F
:101350000E948D01FC01808162E975E08E3209F402
:101360009DC0B801CE0101960E948D01DC018C91D7
:1013700066E975E08B3509F491C0B801CE0101969C
:101380000E948D01FC01808166EA75E08D3509F4CB
:1013900085C0B801CE0101960E948D01DC018C91BF
:1013A00066EB75E08C3709F479C0B801CE0101967F
:1013B0000E948D01FC0180816DEB75E08A3309F498
:1013C0006DC0B801CE0101960E948D01DC018C91A7
:1013D0006AEB75E08B3309F461C0B801CE01019668
:1013E0000E948D01FC01808161EC75E08C3209F472
:1013F00055C0B801CE0101960E948D01DC018C918F
:101400006BEC75E08E3709F449C0B801CE01019646
:101410000E948D01FC0180816BED75E08C35F1F14E
:10142000B801CE0101960E948D01DC018C9164E52A
:1014300073E0873299F1B801CE0101960E948D01C7
:10144000FC0180816BEE75E0823241F1B801CE0182
:1014500001960E948D01DC018C916BEF75E0803468
:10146000E9F0B801CE0101960E948D01B801CE01CC
:1014700001960E948D01FC0180816BE076E08D3742
:1014800069F0B801CE0101960E948D01DC018C91BA
:101490006BE176E08B3711F06BE276E0CE0143969C
:1014A0000E9468046BE475E0CE0143960E946804D4
:1014B0000F5F1F4FC5CCCE0101960E94FF03F201C2
:1014C0008491F3010491F4011491112309F49EC154
:1014D00081110E941403E12FF0E0EE0FFF1FEC5387
:1014E000FE4FA591B4918C91082309F48FC136E485
:1014F000E32E32E0F32EF2E0EF1AF10861E0D701BB
:101500008C910E947B03CE010D960E94F6040091FF
:101510008206109183066F89788DC8010E94150C90
:10152000BC01CE0143960E948D01FC016081CE0179
:101530000D960E949A04C80101966F89788D0E94C9
:10154000150CBC01CE0143960E948D01DC016C910B
:10155000CE010D960E949A04C80102966F89788D7B
:101560000E94150CBC01CE0143960E948D01FC0126
:101570006081CE010D960E949A041A8219821C8203
:101580001B821E821D826D857E856115710531F07D
:1015900049895A89CE0101960E94CB04CE01079653
:1015A0000E94F60410E000E0B801CE0101960E940E
:1015B0008D01DC018C91882309F481C0B801CE0132
:1015C00001960E948D01DC01EC91E053E73308F0B5
:1015D00046C00E2E000CFF0B8827EE50F54F8F4FA4
:1015E0000C94290C290B320B350B380B3B0B3E0BA3
:1015F000410B440B470B4A0B2F0B2F0B2F0B2F0BC1
:101600002F0B2F0B2F0B4D0B500B530B560B590B56
:101610005C0B2F0B2F0B2F0B2F0B2F0B2F0B2F0BCD
:101620002F0B2F0B2F0B2F0B2F0B2F0B2F0B2F0BEA
:101630002F0B2F0B2F0B2F0B2F0B2F0B2F0B2F0BDA
:101640002F0B2F0B2F0B4D0B500B530B560B590B16
:101650005C0B6DE475E0CE0107960E9468040F5F95
:101660001F4FA2CF6BE376E0F6CF63E075E0F3CFD8
:1016700060E476E0F0CF65E476E0EDCF6AE476E012
:10168000EACF6FE476E0E7CF64E576E0E4CF69E5A2
:1016900076E0E1CF6DE775E0DECF6EE576E0DBCF9B
:1016A00063E676E0D8CF68E676E0D5CF6DE676E003
:1016B000D2CF62E776E0CFCF67E776E0CCCFCE013E
:1016C00001960E94FF03CB84DC8492E0A92EB12C0A
:1016D000B2E0CB16D10420F4560122E0C22ED12C68
:1016E000CE0101960E94F6040B851C85A016B1065A
:1016F00020F5C016D10608F48601EF81F885E00FC9
:10170000F11FD08010826F8178856A0D7B1D611575
:10171000710509F46EC0FB0101900020E9F73197D3
:10172000AF01461B570BCE0101960E94CB048F815F
:101730009885080F191FF801D082BE016F5F7F4F97
:10174000CE0107960E940704CE0101960E94FF0376
:1017500010E000E0B801CE0107960E948D01DC0187
:101760008C918133E9F4F801EE0FFF1FEA5FFD4F22
:10177000308060E0832D0E947B030E94DA035B01CE
:101780006C010E94DA036A197B098C099D09683E85
:10179000734081059105A8F361E0832D0E947B03CE
:1017A0000F5F1F4F0A301105A9F6009182061091B4
:1017B0008306C8010396909383068093820660E0B7
:1017C000F70180810E947B03CE0107960E94FF03F0
:1017D000CE010D960E94FF03FAE1EF16F2E0FF063C
:1017E00009F089CE0C5311091093830600938206E9
:1017F00066CE89819A81009711F00E94CD0C1A82E1
:1018000019821E821D821C821B8291CF1092830638
:1018100010928206CE0143960E94FF030E94E302CB
:10182000B5CA85E297E00C94FF03AA1BBB1B51E1EC
:1018300007C0AA1FBB1FA617B70710F0A61BB70B40
:10184000881F991F5A95A9F780959095BC01CD01E5
:101850000895EE0FFF1F881F8BBF0790F691E02DB4
:1018600019940F931F93CF93DF938230910510F457
:1018700082E090E0E0912D07F0912E0730E020E02B
:10188000B0E0A0E0309799F42115310509F44AC081
:10189000281B390B24303105D8F58A819B816115CD
:1018A000710589F1FB0193838283FE0111C04081A0
:1018B00051810281138148175907E0F048175907F1
:1018C00099F4109761F012960C93129713961C934B
:1018D0003296CF01DF91CF911F910F910895009320
:1018E0002D0710932E07F4CF2115310551F0421723
:1018F000530738F0A901DB019A01BD01DF01F801AE
:10190000C1CFEF01F9CF90932E0780932D07CDCF54
:10191000FE01E20FF31F8193919322503109398325
:101920002883D7CF20912B0730912C07232B41F40C
:10193000209102023091030230932C0720932B0751
:1019400020910002309101022115310541F42DB79B
:101950003EB74091040250910502241B350BE091E3
:101960002B07F0912C07E217F307A0F42E1B3F0B77
:101970002817390778F0AC014E5F5F4F2417350701
:1019800048F04E0F5F1F50932C0740932B07819315
:1019900091939FCFF0E0E0E09CCFCF93DF9300974F
:1019A000E9F0FC01329713821282A0912D07B091C9
:1019B0002E07ED0130E020E01097A1F42081318165
:1019C000820F931F20912B0730912C07281739077E
:1019D00009F061C0F0932C07E0932B07DF91CF91C2
:1019E0000895EA01CE17DF07E8F54A815B819E0181
:1019F00041155105B1F7E901FB83EA8349915991FA
:101A0000C40FD51FEC17FD0761F480819181029608
:101A1000840F951FE90199838883828193819B8339
:101A20008A83F0E0E0E012968D919C9113970097E5
:101A3000B9F52D913C911197CD010296820F931F1C
:101A400020912B0730912C072817390739F630974A
:101A500051F510922E0710922D07B0932C07A093EA
:101A60002B07BCCFD383C28340815181840F951F44
:101A7000C817D90761F44E5F5F4F88819981480F7D
:101A8000591F518340838A819B81938382832115CF
:101A9000310509F0B0CFF0932E07E0932D079ECFCC
:101AA000FD01DC01C0CF13821282D7CF4F925F922B
:101AB0006F927F928F929F92AF92BF92CF92DF925E
:101AC000EF92FF920F931F93CF93DF938C010097B8
:101AD00099F4CB01DF91CF911F910F91FF90EF907F
:101AE000DF90CF90BF90AF909F908F907F906F903E
:101AF0005F904F900C94310CFC01E60FF71F9C0196
:101B000022503109E217F30708F4AEC0D901CD9194
:101B1000DC911197C617D70720F1C530D10578F0B1
:101B2000CE0104978617970750F0C61BD70B229754
:101B3000C193D1936D937C93CF010E94CD0CC801CA
:101B4000DF91CF911F910F91FF90EF90DF90CF9099
:101B5000BF90AF909F908F907F906F905F904F90CD
:101B600008955B01AC1ABD0A4C018C0E9D1EA0911C
:101B70002D07B0912E07512C412CF12CE12C109700
:101B800031F580912B0790912C078815990509F064
:101B90005CC04616570608F058C08091000290912C
:101BA0000102009741F48DB79EB740910402509115
:101BB0000502841B950BE817F90708F055C0F09350
:101BC0002C07E0932B07F90171836083B8CF8D91C7
:101BD0009C91119712966C90129713967C90139784
:101BE000A815B90559F56C0142E0C40ED11CCA1400
:101BF000DB0420F1AC014A195B09DA011296159752
:101C000080F06282738251834083D9016D937C930B
:101C1000E114F10471F0D7011396FC93EE9312973F
:101C20008ECF22968C0F9D1FF90191838083F30143
:101C3000EFCFF0932E07E0932D0781CF481659067A
:101C400008F42C017D01D3019ACFCB010E94310C05
:101C50007C01009749F0AE01B8010E943F0EC80117
:101C60000E94CD0C87016BCF10E000E068CF91118E
:101C7000089581568A5108F4805285580895FB01D1
:101C8000DC0102C001900D9241505040D8F70895F8
:101C9000FB01DC0101900D920020E1F7089511E0B5
:101CA000C9E5D1E000E006C0802FFE010E94290CAA
:101CB0002196011DCA35D10780E00807A9F7F894DD
:021CC000FFCF54
:101CC20000002F07800016001700180019001A00E4
:101CD2001B001C001D001E001F002000210022000E
:101CE20023002400250026002700280029002A00BE
:101CF2002B002C002D002E002F003000310032006E
:101D0200330034003500000000007602A001CD014E
:101D1200C3023E02DC0130023146463231303231FA
:101D22003032313031464600334646323231323279
:101D32003132323131444500314645323031323070
:101D4200313230313138360033464632303132307A
:101D5200313130323046430033464632323132324C
:101D62003132323132303100334646323230323261
:101D72003032323032303000314645323031323258
:101D8200313232313233450033464630323030322E
:101D92003030323033464600323031323031334621
:101DA2004632303132303100323146323031334610
:101DB20046323030323030003346463036303039F9
:101DC20030313038323037003346463030313030FF
:101DD20031303031303031003346463130303038F6
:101DE20030313030334646003346463130303046AB
:101DF2004530303133464600314645333033323098
:101E02003133303331464500334646323230323296
:101E120030323230314330003146453230323230A6
:101E22004132303631464600334646323230323362
:101E32003032323831433700314336323231323286
:101E4200313232313139450032303032303033467E
:101E52004632303032303000334645303031303067
:101E62003130303133464500334643303032303042
:101E72003130303233464300334646303032303030
:101E82003430303233464600333846303530303223
:101E92003030353033384600333830303430303338
:101EA2004630343033383000323033323035323726
:101EB2003932383133303100314645323031323007
:101EC2003132303131464500303430303830313003
:101ED20030323030334646003143333230353230DF
:101EE20039323131314531003132363232313232EA
:101EF20031323231314445003036303041303132C6
:101F020030323230334646003345333232313232A8
:101F12003132323132314500334646323231323299
:101F220031323231323145003230303232303232B7
:101F32003032323033464600334446323231323266
:101F4200313232313344460033453032323032326C
:101F52003032323033464600303438303438303460
:101F62003830343830343800313831313845303354
:101F7200303143363230360030434331333232323D
:101F8200443134323038350030343433464630341C
:101F9200343346463034340030303030303033461B
:101FA2004130303030303000304330313030323038
:101FB200443131303045300030313030313030460C
:101FC2004530313030313000303030303130303126
:101FD20030303130303030003135303045303146FC
:101FE20030304530313530003030313030453033EB
:101FF20030314330323030003032303043303130E3
:1020020030304330303230003030303030303030E9
:1020120030003032303035303038383130343230D0
:1020220032003230323130343038383035303032BC
:1020320030003030313030313030313030313030CA
:10204200310030434331323233464631313230434C
:102052004300303032003346463230313230313292
:10206200303132303100323031323031323031328F
:10207200303133464600324646003030313032325B
:1020820000303031303032303030003030323030A9
:10209200343030323030323030340033303030434C
:1020A2003030333030304330303300303030314331
:1020B200303030303143303030300031464631310B
:1020C2003131323931464430303100323031323000
:1020D2003131454530313030303000303030303100
:1020E20030314545323031323031003045433131C3
:1020F2003232333931313230454300303030310001
:102102003030313100303130300030313031003058
:102112003131300030313131003130303000313046
:102122003130003130313100313130300031313035
:0C213200310031313130003131313100E9
:00000001FF
